:020000040800F2
:1000000000040020B9010008BB010008BB01000882
:10001000BB010008BB010008BB010008BB010008D0
:10002000BB010008BB010008BB010008596F0008B4
:10003000BB010008BB010008BB010008AF7D000840
:10004000BB010008BB010008BB010008BB010008A0
:10005000BB010008BB010008BB010008BB01000890
:10006000BB010008BB010008BB010008BB01000880
:10007000BB010008BB0100083D850008418700085E
:10008000BB010008BB010008BB010008BB01000860
:10009000BB010008BB010008BB010008BB01000850
:1000A000BD7D0008BB010008F9800008BB01000805
:1000B000BB010008BB010008BB010008BB01000830
:1000C000BB010008BB010008BB0100084587000810
:1000D000BB010008BB010008BB010008BB01000810
:1000E00072B6264880F30888254880F30988254899
:1000F00025490860022080F31488BFF36F8F06F053
:10010000DFFC06F0BDFA4FF0553020491B4A914202
:100110003CBF41F8040BFAE71D49194A91423CBF24
:1001200041F8040BFAE71B491B4A1C4B9A423EBF9D
:1001300051F8040B42F8040BF8E700201849194A5B
:1001400091423CBF41F8040BFAE706F0BDFC06F013
:10015000B8FC154C154DAC4203DA54F8041B884723
:10016000F9E702F0BFFB124C124DAC4203DA54F82F
:10017000041B8847F9E706F0A5BC00000004002036
:10018000000C00200000000808ED00E00000002046
:1001900000040020F4970008000C0020900E0020BE
:1001A000900E002098260020E0000008E0000008E3
:1001B000E0000008E000000892E700F000F8FEE729
:1001C0002DE9F04FC1F80CD0C3689D46BDE8F08F13
:1001D000002383F311882846A047002006F03CFE48
:1001E000FEE706F093FD00DFFEE7000080F0004030
:1001F00002E000BF81F0004142001FBF5FEA4103FF
:1002000092EA030F7FEA226C7FEA236C6AD04FEAFE
:100210001262D2EB1363C1BFD21841404840414043
:10022000B8BF5B42192B88BF704710F0004F40F4F5
:10023000000020F07F4018BF404211F0004F41F411
:10024000000121F07F4118BF494292EA030F3FD0DD
:10025000A2F1010241FA03FC10EB0C00C3F12003F0
:1002600001FA03F100F0004302D5494260EB40007F
:10027000B0F5000F13D3B0F1807F06D340084FEAEA
:10028000310102F10102FE2A51D2B1F1004F40EBDF
:10029000C25008BF20F0010040EA03007047490047
:1002A00040EB0000013A28BFB0F5000FEDD2B0FAE4
:1002B00080FCACF1080CB2EB0C0200FA0CF0AABF07
:1002C00000EBC25052421843BCBFD04018437047A5
:1002D00092F0000F81F4000106BF80F400000132AB
:1002E000013BB5E74FEA41037FEA226C18BF7FEA82
:1002F000236C21D092EA030F04D092F0000F08BFC4
:100300000846704790EA010F1CBF0020704712F0AA
:100310007F4F04D1400028BF40F00040704712F1E9
:1003200000723CBF00F50000704700F0004343F04E
:10033000FE4040F4000070477FEA226216BF084684
:100340007FEA23630146420206BF5FEA412390EA47
:10035000010F40F4800070474FF0000304E000BF3D
:1003600010F0004348BF40425FEA000C08BF7047EE
:1003700043F0964301464FF000001CE050EA0102B2
:1003800008BF70474FF000030AE000BF50EA0102C7
:1003900008BF704711F0004302D5404261EB4101B4
:1003A0005FEA010C02BF84460146002043F0B643D9
:1003B00008BFA3F18053A3F50003BCFA8CF2083AFE
:1003C000A3EBC25310DB01FA02FC634400FA02FC07
:1003D000C2F12002BCF1004F20FA02F243EB02000E
:1003E00008BF20F00100704702F1200201FA02FC70
:1003F000C2F1200250EA4C0021FA02F243EB020063
:1004000008BF20EADC7070474FF0FF0C1CEAD052A6
:100410001EBF1CEAD15392EA0C0F93EA0C0F6FD067
:100420001A4480EA010C400218BF5FEA41211ED045
:100430004FF0006343EA501043EA5111A0FB013131
:100440000CF00040B1F5000F3EBF490041EAD37106
:100450005B0040EA010062F17F02FD2A1DD8B3F182
:10046000004F40EBC25008BF20F00100704790F0F1
:10047000000F0CF0004C08BF49024CEA502040EA43
:1004800051207F3AC2BFD2F1FF0340EAC250704709
:1004900040F400004FF00003013A5DDC12F1190F47
:1004A000DCBF00F000407047C2F10002410021FAB9
:1004B00002F1C2F1200200FA02FC5FEA310040F1D1
:1004C000000053EA4C0308BF20EADC70704792F04A
:1004D000000F00F0004C02BF400010F4000F013A82
:1004E000F9D040EA0C0093F0000F01F0004C02BF7D
:1004F000490011F4000F013BF9D041EA0C018FE7EC
:100500000CEAD15392EA0C0F18BF93EA0C0F0AD0F1
:1005100030F0004C18BF31F0004CD8D180EA010017
:1005200000F00040704790F0000F17BF90F0004FB0
:10053000084691F0000F91F0004F14D092EA0C0F92
:1005400001D142020FD193EA0C0F03D14B0218BF25
:10055000084608D180EA010000F0004040F0FE406B
:1005600040F40000704740F0FE4040F44000704707
:100570004FF0FF0C1CEAD0521EBF1CEAD15392EA86
:100580000C0F93EA0C0F69D0A2EB030280EA010C76
:1005900049024FEA402037D04FF0805343EA11110F
:1005A00043EA10130CF000408B4238BF5B0042F16D
:1005B0007D024FF4000C8B4224BF5B1A40EA0C0012
:1005C000B3EB510F24BFA3EB510340EA5C00B3EB44
:1005D000910F24BFA3EB910340EA9C00B3EBD10F32
:1005E00024BFA3EBD10340EADC001B0118BF5FEA84
:1005F0001C1CE0D1FD2A3FF650AF8B4240EBC250AD
:1006000008BF20F0010070470CF0004C4CEA50206D
:100610007F32C2BFD2F1FF0340EAC250704740F4BC
:1006200000004FF00003013A37E792F0000F00F0AE
:10063000004C02BF400010F4000F013AF9D040EA2C
:100640000C0093F0000F01F0004C02BF490011F4C0
:10065000000F013BF9D041EA0C0195E70CEAD153B8
:1006600092EA0C0F08D142027FF47DAF93EA0C0F9F
:100670007FF470AF084676E793EA0C0F04D14B0283
:100680003FF44CAF08466EE730F0004C18BF31F035
:10069000004CCAD130F000427FF45CAF31F000432F
:1006A0007FF43CAF5FE700BF42000ED2B2F1FE4FD5
:1006B0000BD34FF09E03B3EB126209D44FEA002331
:1006C00043F0004323FA02F070474FF000007047F8
:1006D00012F1610F01D1420202D14FF0FF30704799
:1006E0004FF00000704700BF53B94AB9002908BF56
:1006F00000281CBF4FF0FF314FF0FF3000F00CB866
:10070000ADF1080C6DE904CE08F0DCF9DDF804E089
:10071000DDE9022304B07047704700BF032A70B4BC
:1007200012D940EA0105AD0704460B4620D119460F
:10073000204653F8045B54F8046BAE4218D1043AD7
:10074000032A20461946F2D8541E72B103780A785B
:100750009A4208BF241806D00CE010F8013F11F8A7
:10076000012F934206D1A042F7D1002070BC704700
:10077000541EEBE7981A70BC704700BF844641EAEC
:10078000000313F0030349D1403A23D30B680360FD
:100790004B6843608B688360CB68C3600B690361FF
:1007A0004B6943618B698361CB69C3610B6A0362E7
:1007B0004B6A43628B6A8362CB6AC3620B6B0363CF
:1007C0004B6B43638B6B8363CB6BC36340304031B4
:1007D000403ADBD230320BD30B6803604B68436086
:1007E0008B688360CB68C36010301031103AF3D24D
:1007F0000C3205D351F8043B40F8043B043AF9D2DB
:10080000043208D0D2071CBF11F8013B00F8013BAD
:1008100001D30B8803806046704700BF082A13D3BA
:100820008B07B1D010F00303AED0C3F10403D21A8A
:10083000DB071CBF11F8013B00F8013BA4D331F8E2
:10084000023B20F8023B9FE7043AD9D3013A11F862
:10085000013B00F8013BF9D20B7803704B784370F1
:100860008B78837060467047F0B4860746D0541E7C
:10087000002A3CD0CAB2034602E014F1FF3436D35A
:1008800003F8012B9D07F8D1032C29D9CDB245EAF5
:1008900005250F2C45EA054533D9A4F11006360984
:1008A00003F1200707EB061703F1100242E9045594
:1008B00042E902551032BA42F8D1721C14F00C0F02
:1008C00003EB021204F00F0613D0331F23F00303CF
:1008D0000433134442F8045B9342FBD106F0030453
:1008E0002CB1C9B21C4403F8011B9C42FBD1F0BCE3
:1008F000704734461346002CF3D1F8E714460346FC
:10090000C2E71A462646E0E738B505460C4600F031
:100910004DF808B9002038BD47F620039D42FAD1B2
:10092000A3785BB103F03EFFFF2813D1002003F052
:100930003FFF00221146104603F03EFB03F016FE77
:1009400004460028E6D1FF2003F032FF03F0F6FD55
:100950002046E0E7FF2003F02BFFEFE770B50646E7
:100960000D4600F08DF80446D8B105F047F982072E
:1009700009D51D2E07D81D2D05D950231D201A4637
:10098000194602F0CDFF084B1B78DB0609D53A2E3D
:1009900007D83A2D05D950233A201A46194602F0B5
:1009A000BFFF204670BD00BF6E23002038B547F260
:1009B0000B0398420C4607D047F60343984203D0F6
:1009C0002A280ED001240AE00D4BA4780D4D188082
:1009D00024B105F005FB2880002400E02C8020468F
:1009E00038BD01F099F910F0AA0FEBD0A4784C2093
:1009F00014B100F0EDF9EFE700F06CFAEFE700BF9B
:100A00006C2300209C0E002010B5174C208848B3A2
:100A100005F0EBFA40F2DB53984223D9002347F26A
:100A20000B022380114B1B88934212D047F60342DE
:100A3000934217D10E4B1A78A2B901241C7005F00D
:100A400097FA0C4B18600C4B1C60BDE8104003F08B
:100A500063BD0A490B78C3F3001282F0010262F30E
:100A600004130B7010BD00BF9C0E00206C230020EF
:100A7000900E0020980E0020940E00206E2300207F
:100A8000F8B5194E33786BB3184F194C386805F028
:100A9000B3FAFA2223685A43904224BF01332360F9
:100AA00023680A2B0FD900253D602560357001F0C1
:100AB000ADFA02F005FF0F4B1A7865F304121A70B5
:100AC000188801F046FA246814F0010406D0642264
:100AD0001146104603F070FA0020F8BD2246214668
:100AE0002046F7E70120F8E7900E0020980E00203E
:100AF000940E00206E2300200420704703280CD899
:100B000004290AD80F2A08D800EB8000044B0844B7
:100B100002EB001033F8100070470120704700BF4F
:100B20008E8F000804207047032808D839B9054B78
:100B300082F0010202EB400033F810007047012000
:100B4000704700BF7E8F000801207047704708B5CE
:100B5000FFF7FCFF08BD000013B502AB03E903007B
:100B60000F4B1B78B3B99DF8023073B16AB100F036
:100B7000AFFD04460146009800F06CFD2046009948
:100B800002B0BDE8104001F01DBC009800F082FDED
:100B90000446F3E7009800F09BFD0099F0E700BFE2
:100BA000A50E0020034610B400885C880A4640EA7F
:100BB0000440998810BCFFF7CFBF0120704710B5E3
:100BC00004460021FFF7EEFF2146FFF7C0FF10BDEE
:100BD000704708B500F044FCFFF7FAFFBDE8084095
:100BE00046F2A81006F03DB908B5FFF7F2FFBDE8E0
:100BF000084005F019BA08B5FFF7EBFFBDE808405B
:100C000005F038BA38B501210546FFF7CBFF294674
:100C1000044604F01BF808B9002038BD29462046D8
:100C2000FFF772FE0028F7D02946204604F006FEA2
:100C30000028F1D02946204604F0A8F90028EBD07E
:100C40002946204604F078FD0028E5D029462046B4
:100C500003F03EFF0028DFD02946204604F03CFE8A
:100C60000028D9D0AB787BB147F65A439C4222D0BA
:100C70000ED847F601439C421AD047F603439C42E4
:100C800014D0B4F5F84F0ED02846FFF75DFFC4E747
:100C900047F65B439C4211D047F65C439C42F3D13C
:100CA00001F024F9F0E7FFF79FFFB5E701F030F915
:100CB000FFF7A1FFB0E701F025F9E5E701F025F91D
:100CC000E2E708B505F0FBF803F034FB00F027F885
:100CD000BDE80840012003F0E9BB08B500F024F8A6
:100CE000002003F0E3FBBDE8084005F0EDB87047D5
:100CF00001207047704738B50546FFF7F9FF0446F5
:100D000010B12846FFF7F6FF204638BD704710B5F2
:100D10000446FFF7ECFF2046FFF7EDFF10BD08B5D6
:100D20000020FFF7F4FF08BD08B504F05FFFFFF7F0
:100D3000EEFF08BD10B504F059FF074B04461A78C2
:100D4000824207D0187005F013F9044B1860204652
:100D5000FFF7DDFF10BD00BFA40E0020A00E002095
:100D600010B586B06C4684E803009DF802300BB1E4
:100D700000F0FEFF0023ADF8163094E80300ADF854
:100D80001410BDF81430049004AC94E803000290F1
:100D90004BB14FF6FF73BDF808209A4203D02046AE
:100DA000FFF70BFF18B194E8030000F01BFF06B03B
:100DB00010BD008800F0ACBC08B529B101F008FEF8
:100DC000BDE8084001F0D8BE01F060FEF8E7000081
:100DD00010B50446002878D0822813D104F006FF0D
:100DE000810772D4392000F067FF00F0F1FF4FF463
:100DF000FA5006F036F8392000F066FFBDE81040E2
:100E000000F0E6BF83280ED104F0F0FEC2075CD4E8
:100E1000532000F051FF00F0DBFF42F2107006F0AB
:100E200020F85320E8E784280ED104F0DFFE4307C2
:100E30004BD4472000F040FF00F0CAFF42F2107090
:100E400006F00FF84720D7E7031FDBB2A02B0ED820
:100E50001E4B0146186804F04DFF20B1204600F0FB
:100E600033FF00F0B5FF204600F026FFC6E700F193
:100E70002003DBB2072B07D800F007040120A040B5
:100E8000C0B200F04FFFB9E700F15B03DBB2022B09
:100E900005D8BDE81040243880B204F0D5BE00F17A
:100EA0005803DBB21A2B06D8BDE81040084A32F8C6
:100EB000130004F0E5BE3334E4B2122C05D801F07F
:100EC00087FDBDE8104001F057BE10BD1C0D00208D
:100ED0000E92000808B5034600285AD082280FD188
:100EE00004F084FE810754D5392000F0E5FE00F0BF
:100EF0006FFF392000F0E8FEBDE8084000F068BF51
:100F000083280AD104F072FEC20742D5532000F0B4
:100F1000D3FE00F05DFF5320ECE784280AD104F0F3
:100F200065FE430735D5472000F0C6FE00F050FFB0
:100F30004720DFE7021FD2B2A02ADBD900F120024E
:100F4000D2B2072A07D800F0070301209840C0B2A8
:100F500000F0F0FED0E700F15B02D2B2022A04D822
:100F6000BDE80840002004F06FBE00F15802D2B284
:100F70001A2A04D8BDE80840002004F081BE3333AB
:100F8000DBB2122B05D801F081FDBDE8084001F06D
:100F9000F3BD08BD38B505460C46FFF719FF1CB96F
:100FA0002846FFF797FF38BD6420013C05F059FF44
:100FB000A4B2F4E708B539280CBF50210021FFF78F
:100FC000E9FF08BD08B528B100F0ACFEBDE8084057
:100FD00000F0FEBE08BD08B528B100F0ABFEBDE8CC
:100FE000084000F0F5BE08BD2DE9F047877981463D
:100FF0000C46857800F086FE3F090646F0B12E4685
:10100000E5B1C4F3072303F0F002402A09D004F14C
:101010002002D2B2072A24D91FB903F0E003202B03
:1010200021D0A94B5E7816F0040607D0022000F00C
:1010300029FF00F067FE80F00106F6B2C4F3033A20
:10104000BAF10B0F3ED8DFE81AF0100010005E0076
:101050005E00CA00E2003D003D00E7004701570185
:1010600057010026EAE73E46E8E7C4F30723C4F346
:10107000032713F0F00F18BF3F01E4B285B157B159
:1010800004F12003DBB2072B384600D92CB900F05D
:1010900049FE00F09DFE20465EE000F059FEF8E7B4
:1010A0002046FFF717FF6FB104F12003DBB2072BD7
:1010B000384600D914B900F03DFE01E000F050FEC2
:1010C00000F086FEAAF1080ABAF1030F03D804F073
:1010D0008DFDFFF71CFE002E00F0678100F00AFE78
:1010E00010F0010040F0618189F8020000F0FAFD83
:1010F00000F046FA484600F06FF900F0F3FDBDE855
:10110000F04700F049BAC4F3072303F0F003C4F337
:101110000328202BE4B218BF4FEA081874B1012C41
:1011200048D0002D4ED0002F47D099F80630DA076E
:10113000B1D56FF3071389F806303EE0624B5B7858
:10114000590714D45DB1B8F1000F04D0404600F047
:10115000E9FD00F03DFE0020FFF73AFEB2E7284629
:10116000FFF7B8FEB8F1000FACD04046A3E795B149
:101170003FB900F003FE40EA0800C0B2FFF722FFCB
:10118000A0E7012FF5D100F0F9FD40EA0800C0B258
:1011900000F000FE96E72FB900F00EFE4046FFF784
:1011A0001AFF8FE7012F8DD04046FFF714FF00F0A4
:1011B00003FE87E71DB1052F84D84046DEE7042FE4
:1011C00080D8EBE7002FE9D0392C0CBF4FF4FA5050
:1011D000012005F046FE2046FFF77CFE72E714F47E
:1011E000406FC4F3812308D0012B7FF46BAF65B14E
:1011F000C4F3090004F044FD64E725B1C4F3090019
:1012000004F022FD5EE72846FAE72846F2E7294681
:10121000E0B2FFF7D1FD55E714F4407F29D1002D4E
:101220007FF450AFC4F342108000C2B204F00F004C
:1012300014F0100300FA02F0C5B21EBF0F20904058
:10124000C043C4F3812418BFC3B2022C43EA050093
:1012500009D0032C0AD0012C02D000F069F931E743
:1012600000F05EF92EE700F06BF92BE700F055F97E
:1012700028E7C4F301220DB312F0010F3FF422AFAF
:10128000C4F342108000C2B204F00F0014F0100347
:1012900000FA02F0C5B21EBF0F209040C043C4F355
:1012A000812418BFC3B2022C43EA05000ED0032CE0
:1012B0000FD0012C05D000F08DF903E712F0020FDA
:1012C000DCE700F07FF9FDE66E23002000F08AF9EC
:1012D000F8E600F043F9F5E6E7B2C4F3032425B1DC
:1012E000204600F04DF9384648E73846FFF773FED0
:1012F000204600F051F9E5E65FFA84F8A8F1F00322
:10130000042B3DD8DFE803F003220E151E003DB18B
:10131000042F3FF6D7AEC4F3042000F047F9D1E61E
:10132000052FF6E7C4F30420002DE2D100F028F9E0
:10133000C8E625B1C4F3042000F01BF9C2E600F0B2
:1013400015F9BFE61A4B5B785B0704D4C4F304209D
:10135000002DCED0EAE74DB1C4F30424204600F0BE
:101360000FF90321204600F069FDABE6012000F0F3
:1013700089FD012F7FF6A6AE022000F083FDA1E6D5
:101380002DB10FB14046E7E6C4F30420CEE74FB1DC
:10139000B8F1390F0CBF4FF4FA50012005F061FD90
:1013A000404619E7C4F30420A3E7BDE8F08700BF77
:1013B0006E23002038B501880446807800F0B4F927
:1013C000054600F017F900F0A7F829462046BDE8C9
:1013D0003840FFF709BE000013B504460146062257
:1013E0006846FFF7CBF9A388F3B14FF6FF73BDF85A
:1013F00000209A4218D02046FFF704FC70B900F094
:1014000081FC88B1A3787BB1084B5B785B070BD577
:10141000022002B0BDE8104000F034BD2046FFF7C6
:10142000C9FF2046FFF7CBFB02B010BD6E230020A2
:1014300008B5002004F008FC002004F021FC00F0B6
:1014400097FC00F0C5FC01F0B3FBBDE8084001F0DB
:1014500093BB08B500F040FCBDE80840FFF7E8BFCB
:1014600008B500F06FFCBDE80840FFF7F2BFC0F31D
:101470000333062BC2B213D094BF0E33063303F0EE
:101480000F03012B10D8F02A10D004D8E72A8CBF04
:10149000002001207047F42A14BF0020012070476B
:1014A000E72A03D9F12AF7E70020704701207047A7
:1014B00013B50446014606226846FFF75FF9A38884
:1014C0006BB14FF6FF73BDF800209A4207D0208819
:1014D00000F01EF902B0BDE81040FFF7C8BF0020C1
:1014E00002B010BD82B002AB03E9030002B0704746
:1014F00082B002AB03E9030002B07047704708B541
:10150000FFF7FCFF08BD000008B5FFF7F8FF014B2F
:10151000187008BDA60E00207047FFF7F5BF000049
:10152000024B1B781843FFF7EFBF00BFA60E002049
:10153000024B1B781840FFF7E7BF00BFA60E002044
:10154000024B1B785840FFF7DFBF00BFA60E0020FC
:10155000704708B5FFF7FCFF08BD000008B5FFF7AE
:10156000F8FF014B187008BDAA0E00200020FFF7FD
:10157000F5BF012303FA00F0C0B2FFF7EFBF000090
:10158000012303FA00F0034B1B781843C0B2FFF7A6
:10159000E5BF00BFAA0E00200123034A8340107854
:1015A00020EA0300FFF7DABFAA0E0020012303FAA6
:1015B00000F0034B1B785840C0B2FFF7CFBF00BF0D
:1015C000AA0E0020024B1B781843FFF7C7BF00BFCD
:1015D000AA0E0020024B1B781840FFF7BFBF00BFC8
:1015E000AA0E0020024B1B785840FFF7B7BF00BF80
:1015F000AA0E0020704701F00703C90830B501EBBF
:10160000410101240139114400229C40E4B211F847
:10161000015F20FA02F343F300036B4023400132E1
:101620006B40032A0B70F2D130BD002210B500F0E0
:101630000704C00800EB4000014410468B5CE34007
:1016400003F00103934001321843032AC0B2F5D1DD
:1016500010BD000017B40C46ADF80400C1B2C0F3D1
:101660000720042809D80F290DD8084A01EB0011DA
:10167000204603B010BCFFF7BEBF031DDBB2012B39
:1016800001D8034AF4E703B010BC7047AB0E00204A
:10169000A70E002082B0ADF80400C3B2C0F307204B
:1016A000042807D80F2B0CD8074903EB001002B011
:1016B000FFF7BBBF0430C0B2012802D81846034967
:1016C000F5E7002002B07047AB0E0020A70E002007
:1016D00073B503240C4BADF804001E780B4B1B783C
:1016E0001E4346FA04F3DB07E5B205D4013CF8D209
:1016F0000025284602B070BD2846019900F081FE01
:1017000080B20128F2D0F4E7AA0E0020A60E002035
:1017100007B5ADF804000198FFF7DAFF019903B0AF
:101720005DF804EB00F06DBE13B5104BADF804107E
:101730001B782BB1019802B0BDE81040FFF7E8BF5D
:1017400070B10198FFF7C4FF044601460198FFF706
:1017500081FF2046019902B0BDE8104000F051BE63
:101760000198FFF797FF0446F3E700BFA50E00209E
:1017700010B5012404FA01F104FA02F20A43D1B2CD
:1017800002408A4204FA03F406BF2043C0B2A043D9
:1017900010BD000008B513460A460146034800780C
:1017A000FFF7E6FFBDE80840FFF7D8BEAA0E00200D
:1017B00084B06B4683E80300BDF8042093E803007F
:1017C000029052B14FF6FF73BDF80800C31A584299
:1017D000584180F0010004B070470120F9E7000093
:1017E000F8B50C4B0C4E1C780C4D3378A34200D14D
:1017F000F8BD05EBC40335F834005F889A88D988B2
:1018000040EA074042EA01410134FFF771FE04F06B
:101810000704EAE7130F0020120F0020D20E002069
:10182000064B10B418885C889A88D98840EA04402E
:1018300042EA014110BCFFF75BBE00BFCA0E0020A8
:101840002DE9F047214CA37913F0F00F0ED1A378C6
:1018500063B11F4B94F801801D781E4B94F80090E3
:101860001F78B4F804A01C4EBD4201D1BDE8F0873A
:1018700023886088A18843EA0040FFF799FF00B3FE
:1018800006EBC5035A7842451BD116F835204A4568
:1018900017D19A78AAB99A88A2EB0A0292B2C72AFB
:1018A0000FD80121A279094861F30712A2719A7930
:1018B00061F307129A71FFF78FFDBDE8F047FFF75C
:1018C0008FBF013505F00705CEE700BFCA0E002027
:1018D000130F0020120F0020D20E0020F0B50D4B88
:1018E0000D4C1B7826780D4CB34201D10020F0BD81
:1018F00004EBC3056F788F4206D114F8337087422A
:1019000002D1AD78954203D1013303F00703EBE731
:101910000120ECE7130F0020120F0020D20E002050
:101920002DE9F04F89B0AE4D04AF014604460622C2
:101930003846FEF723FF2A886888A98842EA0040D3
:1019400003920291FFF734FF94F80280019000287F
:1019500000F03181B4F804B00299AE78ABEB01012C
:1019600094F800A094F80190039A89B2002E00F038
:10197000E080A879C72900F0F00300F2B280218846
:10198000002B76D18A4246460FD176B9012363F304
:101990000710A871FFF744FF2846FFF71DFDAB793C
:1019A000A371304609B0BDE8F08F8DF810A08DF816
:1019B00011908DF8128097E8030006AE0690ADF8FE
:1019C0001C1096E80300FFF7F3FE38B1B8F1000FE2
:1019D00004D1424649465046FFF780FF97E803008E
:1019E0000690ADF81C1096E80300FFF7E1FE0746ED
:1019F000D8B1B8F1000F37D1424649465046FFF7FB
:101A00006DFF0646A0B90498FFF782FEC0F30332CB
:101A1000032AC3B20ED8012A16D910F4706F18D059
:101A2000A27912F0F00F14D1BBE7B8F1000F1BD16F
:101A30000026B6E7063202F00F02012A0ED9204630
:101A4000FFF7CAFC3E46ACE710F4706F01D0002BE4
:101A5000A7D02033DBB2072BA3D9F0E7EF2BA0D917
:101A60000F33DBB2022BF7E7AB7943F00103AB7125
:101A7000DEE78A420ED1B8F1000F0BD1A0712046EB
:101A8000FFF7AAFC082221462846FEF777FEFFF75B
:101A9000C7FE86E72046FFF70BFDE8B1B8F1000F5F
:101AA0001AD0AB791F2B0CD92A8806A8ADF81820BC
:101AB0000022ADF81CB08DF81A208DF81E30FFF70B
:101AC0008BFC082221464648FEF758FEFFF7B8FE79
:101AD000FFF7A6FE019E64E72046FFF77DFC012686
:101AE0005FE7B3B98DF810A08DF811908DF81280D2
:101AF00097E803000193FFF7F5FC2846FFF76CFC1D
:101B0000019B082219462846FEF7AEFEFFF788FE25
:101B10008EE723889A42BDD1B8F1000FBAD1A071E7
:101B20002046FFF759FC082241462846FEF79CFE56
:101B300037E7C7292FD84646002ECDD023889A42B2
:101B40001CD1AB79DA0713D413F0F00210D0F02ACD
:101B5000A37106D0DBB2C3F30312013262F30713A1
:101B6000A3712046FFF738FC082221461C488CE769
:101B7000082221461A48FEF701FE12E72046FFF729
:101B800097FC00289DD1AB79204643F00103AB714F
:101B9000FFF722FC05E78DF810A08DF811908DF865
:101BA000128097E80300FFF79DFC08223146284683
:101BB000FEF75AFE6BE7B8F1000F8DD02046FFF715
:101BC00077FC0646002887D0082221462846FEF7E3
:101BD000D5FD2846FFF7EDF8FFF732FE57E700BFC7
:101BE000CA0E0020F0B587B06C4684E8030020469A
:101BF000FFF796FE2C4F06462C4D50B194E803009B
:101C0000FFF7D6FD18B194E80300FFF771FC284CEC
:101C100043E0BDF8042004AB94E8030083E803002C
:101C20000290002AF3D04FF6FF71BDF808403878D3
:101C30008C422A78EBD0441C04F0070494420AD06A
:101C400019461B4B082203EBC000FEF797FD3C70C2
:101C5000FFF7C6FDDBE7FFF703FC08223146154816
:101C60003E702E70FEF700FED1E704EBC000FFF7D8
:101C700057FEB0B12B7834F8330004EBC3035E8811
:101C80009A88D98840EA064042EA0141FFF730FCD1
:101C90002B78013303F007032B7028783B788342BD
:101CA000E3D107B0F0BD00BF120F0020130F0020DA
:101CB000D20E0020CA0E0020024B0146186804F024
:101CC00085B800BF1C0D0020024B0146186804F0C7
:101CD00095B800BF1C0D0020014B186804F0A6B891
:101CE0001C0D0020024B93F90000C0F3C7007047A1
:101CF000540F0020024B187800F00700704700BF17
:101D0000540F0020034B187810F0070018BF012073
:101D1000704700BF540F0020014B1878704700BF78
:101D2000560F0020024B1A7810431870704700BFFE
:101D3000560F0020024A137823EA000313707047FD
:101D4000560F00200022014B1A707047560F0020DA
:101D5000024B1A7810431870704700BF570F0020CD
:101D6000024A137823EA000313707047570F0020CC
:101D70000022014B1A707047570F0020014B187852
:101D8000704700BF550F0020704708B5FFF7FCFFF4
:101D900008BD0000064A08B55278520706D5054A24
:101DA0001178814202D01070FFF7EFFF08BD00BF2D
:101DB0006E230020550F002008B5044B1A781AB185
:101DC00000201870FFF7E1FF08BD00BF550F00208D
:101DD00010B5124B124A1B781278124C1343124A58
:101DE00020681278037032B11343037003F064FF6C
:101DF00008B1FFF7E1FF2468202220460B49FEF7D7
:101E00008DFC48B1214620220848FEF7B7FC204649
:101E1000BDE8104003F0F6BE10BD00BF560F002015
:101E2000570F00201C0D0020550F0020340F0020FC
:101E3000704708B5FFF7FCFF08BD00000A4A10B55F
:101E4000527852070CD5094C41EAC0012170FFF7C6
:101E500097FB94F90000C0F3C700FFF7EAFF10BD3D
:101E6000BDE81040FFF78CBB6E230020540F00200C
:101E7000002008B5024B1870FFF7DBFF08BD00BF5C
:101E8000540F002008B50C4A92F9003023EA0000F4
:101E900040B2107042070ED1DBB283420BD0074B29
:101EA0005B785B0707D5C0F3C700FFF775FBBDE89C
:101EB0000840FFF7DDBF08BD540F00206E2300204F
:101EC000094A08B55378C3F3800181420AD060F310
:101ED00082035370108800F03CF8BDE808400220EF
:101EE000FFF7D0BF08BD00BF6E230020044B587819
:101EF000C0F3800080F0010000F00100FFF7E0BFB8
:101F00006E2300200120FFF7DBBF0020FFF7D8BFC2
:101F100008B500F0C7FFBDE808404FF6FF7100208C
:101F200000F0A2BF08B5002000F037FF4FF6E763CE
:101F3000984203D1BDE8084002F028BE002008BD49
:101F4000022000F01BBF032000F018BF042000F0A7
:101F500024BF0146042000F087BF01460F2000F097
:101F600091BF0146132000F08DBF0020FFF7F9BF9D
:101F700008B50020FFF7F1FFFFF7F7FF08BD0000ED
:101F800010B5002400F08EFF4FF6E761002000F04E
:101F90006BFF0021022000F059FF0021032000F018
:101FA00055FF194B4FF4A05104201C7000F05CFF4A
:101FB0002146062000F04AFFFF21072000F046FFDF
:101FC0002146082000F05EFF21460D2000F03EFF74
:101FD0002146182000F056FF2146172000F036FF5A
:101FE00021461C2000F04EFF2146202000F03CFF3F
:101FF0002146182000F046FF204602F0DCFD02F0EA
:1020000004FEFFF7B5FF10BDA60E0020FFF7B8BF16
:1020100001460E2000F01ABF37B503F0E1FF0D4D69
:1020200004462B88834212D04FF6FF73ADF8003080
:1020300000238DF8023003F0D3FF40F00100ADF82B
:10204000040002AB13E90300FEF78AFE2C8003B004
:1020500030BD00BF640F002008B503F089FF024BBC
:102060001860024B186008BD5C0F0020600F002054
:1020700008B503F07DFF024B1860024B186008BDE5
:102080005C0F0020580F00207047704708B5FFF71D
:10209000FCFF08BD704708B5FFF7FCFF08BD012035
:1020A0007047000008B5054800F096FA00F0F8FE09
:1020B000FFF7EAFFFFF7EAFF08BD00BFD1250008E0
:1020C0000120704708B5FFF7FBFF08BD704708B552
:1020D000FFF7FCFFFEF798FC08BD08B500F09EFA7C
:1020E000FEF714FEBDE8084002F0B2B908B503F0EF
:1020F0003DFF02F09AFD03F0B7F800F05DFBFFF73B
:10210000ECFF054B1A7842F080021A701888FFF72E
:1021100020FFFFF7C0FF08BD6E2300202DE9F04F20
:1021200085B0FFF7BCFF78B9FFF776FF02F002F940
:1021300003F0CEF808B1FFF79BFF00F061FD05B09A
:10214000BDE8F04FFEF7F6BDDFF8BC8000F04EFBB7
:1021500046460024E0B236F8025B00F089FA042C0F
:102160004ED0854204F10104F4D0284B1B789B0724
:1021700001D500F083FAFFF7A5FF002700900DF1CD
:10218000080B5FFA87FA504600F072FA38F8026BD3
:102190000546B0422ED000244FF001094640B6B2A9
:1021A00016EA090F1CD0009B15EA090F14BF012283
:1021B00000228BB18DF80A2001928DF808408DF82D
:1021C00009A003F00DFF40F00100ADF80C009BE802
:1021D0000300FEF7C5FD019A2146504601F08CFF31
:1021E0000134E4B24FEA4903102C1FFA83F9D7D126
:1021F00028F8025C0137052FC3D1FFF72DFF95E7C3
:102200008542B2D190E700BF660F0020700F00201A
:1022100038B500F001F9B0F5A44F044643D2B0F54B
:10222000A04F80F0AC80DF2816D8CC2800F28A803E
:10223000A7280AD8A42878D8012804D0031F9BB265
:10224000A12B28BF0024204638BDA0F1A8039BB2D3
:102250001A2B6FD90024F6E7B0F5804F19D2B0F5EC
:10226000005F80F09C80E728EDD9A0F580739BB2D9
:10227000B3F5F85FEED2C0F3072000F053F905463E
:10228000E0B200F0C9F82D0205F4F8550543ACB2F0
:10229000D9E7C0B200F0C0F804F47064044344F419
:1022A0002044A4B2CFE7B0F5A54F21D245F25F2379
:1022B000984251D845F23F2398420ED845F21F2349
:1022C000984242D80124C0F3850300F00300844003
:1022D00044EA431444F40D44E3E70124C0F38203C9
:1022E00000F00300844044EA431444F40C44D8E76B
:1022F00045F2BF2398420AD845F29F23984200F046
:102300001F0034D84AF2F40444EA00249BE7A0F505
:10231000A543403B9BB21F2B9CD8040204F4F85405
:1023200044F4204444F0F0048DE7A0F1240444F484
:102330008044B6E7224B5834E4B233F8144044F4F6
:10234000884480E740F4A044ABE74AF2F10300F090
:102350001F0443EA042476E70124C0F3820300F05B
:102360000300844044EA431444F40A4499E700F02B
:10237000D9F8040204F4F85444F4005463E700F07C
:102380001F0000F0CFF8C306C4F3431448BF000198
:10239000240200B2204340F4104084B253E7C0F35B
:1023A000042000F0BFF80546E0B200F035F82D0239
:1023B00005F4F85545EA000444F4005471E700BF01
:1023C0004492000882B0ADF80410CBB2C1F30721EB
:1023D000042905D80F2B11D81A4602B003F001B911
:1023E000FD2905D153B90122194602B003F006B9FF
:1023F000FC2903D113B91A461946F6E7002002B0AA
:10240000704707B5ADF804100199FFF7DBFF03B083
:102410005DF804EBFFF7FCBEE72850D8DF2807D8AB
:10242000312865D00ED8292858D02A2867D070477F
:10243000A0F1E003072B42D8DFE803F0154124297F
:1024400033413D42392804D0822802D0352840D07B
:102450007047334B1A7892075CD15B7813F0080F02
:1024600018BF292070472E4A1378D9074ED45278C6
:1024700012F0010F23D013F0100F08BFE32018BF94
:1024800000207047264B1B7813F0040FF2E7244A14
:10249000137859073CD45278D2073BD413F0100F6D
:1024A000EDE71F4B5A78910709D51B7813F0100FF1
:1024B00008BFE720E3E71A4B1B781A07F6D47047EA
:1024C000174A1378190727D452789107E6D5E420E4
:1024D0007047134B1B7813F0200FC1E7104B1A788D
:1024E00092061BD45B7813F0080F18BF3920704791
:1024F0000B4B1B7813F0400F18BF2A207047084B76
:102500001B7813F0400F18BF3120704739207047F7
:10251000E2207047E0207047E62070473520CEE784
:102520006E230020294A1378590707D500F01801B7
:10253000082927D100F0F70040F00400190707D55B
:1025400000F01801182926D100F0E70040F014002F
:102550005278D10707D500F01801082924D100F0DE
:10256000F70040F00100920707D500F01802182A82
:1025700023D100F0E70040F01100DB0648BF00F077
:10258000E700704700F01401042904BF00F0FB00CD
:1025900040F00800D2E700F01401142904BF00F055
:1025A000EB0040F01800D3E700F01101012904BF4F
:1025B00000F0FE0040F00800D5E700F01102112AFB
:1025C00004BF00F0EE0040F01800D6E76E230020B4
:1025D0000020704700207047014B1860704700BF13
:1025E000200D0020FFF794BC08B500F0FFF840F67E
:1025F000B83004F036FC00F0F9F8002000F038F8AC
:10260000C30705D5FFF7EEFFBDE8084003F00CBD9A
:1026100008BD08B5FFF7E8FF08BD000008B5FFF7E3
:1026200081FC08B9FFF7F2FCFFF78AFC084B187031
:10263000FFF78CFC074B1880FFF7EBFFFFF783FCDD
:10264000FEF76BFF044B1878BDE80840FEF781BF2A
:10265000700F00206E230020AA0E0020704708B5DE
:10266000FFF7FCFF08BD704708B5FFF7FCFF08BD8A
:10267000014B33F8100070477A23002070474FF465
:10268000076004F067BA00BF00BF00BF00BF00BF13
:1026900000BF00BF00BF00BF00BF00BF00BF00BF42
:1026A00000BF00BF00BF00BF00BF704708B5FFF705
:1026B000E6FF08BD08B5302383F31188012100F03F
:1026C0000F039940202220F00F0005F03AFB002371
:1026D00083F3118808BD000038B510240B4D55F860
:1026E000040B421C01D0FFF7E5FF013C14F0FF048E
:1026F000F5D10524064D55F8040B431C01D0FFF716
:10270000D9FF013C14F0FF04F5D138BD7C920008DC
:10271000BC9200082DE9F843DFF89480174658F87A
:10272000213005465A1C0E4640D0302282F31188D3
:10273000012223F00F0903F00F0302FA03F42146EC
:102740004846240405F0FDFAC9F81840002484F333
:102750001188FFF798FF6FEA070C1648AA1E083584
:1027600050F8041B32F8023FB1F1FF3F1AD021F0BC
:102770000F0EDEF810E001F00F012EFA01F1C9078B
:1027800010D401243B4313809542E9D158F8260028
:10279000431C01D0FFF78EFF21463046BDE8F843C9
:1027A000FFF784BF0CEA03031380EDE7BDE8F8836D
:1027B0007C920008BC92000810B50A24FFF78CFF39
:1027C000224600210748FEF74FF82246002106481E
:1027D000FEF74AF8052000F03BF8BDE81040FFF78F
:1027E0003EBF00BF7A2300207023002030B50024B4
:1027F000012585B001940294ADF80C402A46E1B25F
:1028000001A80134FFF786FF6D00102CADB2F5D1A1
:102810000A220D4801A9FDF781FF002814BF0124F9
:10282000002404D00A22084801A9FDF7A7FF234687
:1028300005220649044800F00DF80446FFF714FF8E
:10284000204605B030BD00BF702300207A23002051
:10285000704700002DE9F04107460E461446DFF8A8
:10286000548033B1012388F8003003F081FB124B10
:10287000186098F800501DB900252846BDE8F08181
:102880000D4B186803F0B8FB0C4B1B688342F3D860
:102890006400224639463046FDF740FF40B12246EB
:1028A00039463046FDF76AFF002388F80030E4E738
:1028B0000546F9E7710F0020740F0020240D002059
:1028C00008B503F0EDFEFFF711FCBDE8084003F08A
:1028D000FDBE08B503F000FFFFF720FCBDE808408F
:1028E00003F01ABF08B503F005FB03F0D7FEFFF7AE
:1028F000D9FBFFF7E5FFFFF7ECFFFFF7E8FBFAE78F
:10290000164B1B78D90707D5154B187840007F2840
:102910001FD800B3C0B270479A0703D5104B187880
:102920008000F4E75B0703D50D4B1878C000EEE795
:102930000C4B1B785BB10C4A09491278087893421A
:10294000F4D25843C000B0FBF2F080B2DFE70820B9
:10295000E0E77F2070470120704700BF820F002012
:102960002A0D0020830F00202B0D0020144B1B7814
:10297000D90705D5134B18788008F8B1C0B2704755
:102980009A0703D50F4B18784008F6E75B0705D583
:102990000C4B18787F28F0D97F2070470A4B1B78A2
:1029A00053B10A4A074912780878934236BF584310
:1029B00080B2B0FBF2F0EDE70120DFE701207047C5
:1029C000820F00202E0D0020840F00202F0D0020EC
:1029D000CD2808B505D1FFF793FF4042294BD870A9
:1029E00008BDCE2802D1FFF78BFFF7E7CF2805D12E
:1029F000FFF786FF4042234B9870F1E7D02802D1C1
:102A0000FFF77EFFF7E7D92804D1FFF7AFFF1D4B93
:102A10001871E5E7DA2803D1FFF7A8FF4042F6E78F
:102A2000DB2805D1FFF7A2FF4042164B5871D7E7CC
:102A3000DC2802D1FFF79AFFF7E700F12F03DBB2A2
:102A4000072B08D801230F4AD13803FA00F0537836
:102A500018435070C4E7DD2805D10B4A137843F0C2
:102A600001031370BCE7DE2804D1074A137843F052
:102A70000203F6E7DF28B3D1034A137843F00403D7
:102A8000EFE700BF7C0F0020820F0020364BCD28DF
:102A900093F902200AD193F9031000290CDA0021DE
:102AA000D97052B90021314A117006E0CE280DD1FB
:102AB00093F903100029F2DC72B11A795B791343A0
:102AC0005AB2002B4FD12A4B1A707047CF2806D12B
:102AD000002AF1DA00229A7093F90320E1E7D02866
:102AE00002D1002AF6DCE7E7D92893F9041004D1D3
:102AF0000029E1DD00211971DEE7DA2802D1002981
:102B0000DADAF7E7DB2893F9051004D10029D3DAE4
:102B100000215971D0E7DC2802D10029F8DCCBE78D
:102B200000F12F01C9B2072907D80121D13881400E
:102B3000587820EA01005870BEE7DD2805D10D481D
:102B4000017821F001010170B6E7DE2804D10948BF
:102B5000017821F00201F6E7DF28ADD105480178C0
:102B600021F00401EFE770477C0F0020830F002065
:102B7000840F0020820F002008B503F031FA094BC2
:102B8000DA7899780A431CBF074A10801A795B7972
:102B900013431CBF054B18800248BDE8084003F0F2
:102BA00049B800BF7C0F0020780F00207A0F00206A
:102BB000062208B500210548FDF756FE0023044A09
:102BC0001370044A1370044A137008BD7C0F002070
:102BD000830F0020840F0020820F002090F9023024
:102BE0005BB990F9033043B990F904302BB990F9EF
:102BF0000500003818BF0120704701207047000011
:102C000037B5554C062221466846FDF7B7FD00232F
:102C10009DF80220A370E370237163719DF8033067
:102C200013430AD04D4B188803F0DFF94C490B7859
:102C30003BB34C4A127890422CDC9DF804209DF85E
:102C4000053013430BD0484B188803F0CEF94749A1
:102C50000B78002B4AD0464A127890424FDC6946E6
:102C60003D4803F0F7F818B93B48FFF7B7FF08B144
:102C7000FFF782FF062269463748FDF77FFD03B064
:102C800030BD0A253B4A12786A439042D5DD0133B4
:102C90000B7001E0FF2BFAD19DF902503DB1FFF717
:102CA0002FFE002DCCBF0123FF235843A0709DF9B8
:102CB00003503DB1FFF724FE002DCCBF0123FF23BD
:102CC0005843E07094F90220002AB6D094F90330FA
:102CD000002BB2D0B5214A434B43121208BF012248
:102CE0001B1208BF0123A270E370A6E70A25224A3F
:102CF00012786A439042B2DD01330B7001E0FF2B82
:102D0000FAD19DF904503DB1FFF730FE002DCCBF44
:102D10000123FF23584320719DF905503DB1FFF772
:102D200025FE002DCCBF0123FF235843607194F989
:102D30000420002A93D094F90530002B8FD0B521C0
:102D40004A434B43121208BF01221B1208BF012342
:102D50002271637183E700BF7C0F0020780F002091
:102D6000830F0020290D00207A0F0020840F0020FF
:102D70002D0D0020280D00202C0D0020002307B56C
:102D8000014601220DF107008DF8073000F08CF8A4
:102D90009DF8070003B05DF804FB002307B501466A
:102DA00002220DF10600ADF8063000F07DF8BDF806
:102DB000060003B05DF804FB07B5042200230146BA
:102DC0000DEB0200019300F06FF8019803B05DF87D
:102DD00004FB07B501228DF8071001460DF107002D
:102DE00000F067F803B05DF804FB07B50222ADF808
:102DF000061001460DF1060000F05BF803B05DF827
:102E000004FB07B50422019101460DEB020000F01E
:102E100050F803B05DF804FBF8B505461446D31D21
:102E200023F0070300AFADEB030D68460E4600F03C
:102E30003BF8224669462846FDF770FC20B1224641
:102E40003146284600F035F8BD46F8BD38B50C4689
:102E50000546FFF793FFA04205D021462846BDE86E
:102E60003840FFF7B6BF38BD38B50C460546FFF70A
:102E700094FFA04205D021462846BDE83840FFF720
:102E8000B4BF38BD38B50C460546FFF795FFA042E4
:102E900005D021462846BDE83840FFF7B2BF38BD0F
:102EA00000F012B900F038B80B460146184600F0A1
:102EB0004DB80B460146184600F09AB808B5064BC7
:102EC0004FF4805218460021FDF7CEFC41F2080273
:102ED00000F580531A6008BD880F002010B5054C1E
:102EE00023792BB900F069F908B10120207110BDD8
:102EF0000220FCE7881F002010B5064C237933B16F
:102F000000F065F910B100230120237110BD0220EB
:102F1000FCE700BF881F002038B5FFF7DFFF04463D
:102F200018B9FFF7E9FF204638BD00F048F905461B
:102F3000FFF7C4FF012C06D1FFF7DEFF00280CBF0E
:102F4000002505F001052C46EDE7000008B5034615
:102F500008469918B1F5805F05D804491944FDF772
:102F60000DFC012008BD0020FCE700BF880F0020F9
:102F700038B500F024F9044608B3FFF7AFFF4FF46B
:102F8000007205461249002000F03EF970B10EA310
:102F9000D3E900234FF480510D4801F0BBFF0246F6
:102FA0000B464FF4805000F061F950B90024012D18
:102FB00001D1FFF7A1FF41F20802064B1A6020463B
:102FC00038BD0224F3E700BF25232284E49CF2CB22
:102FD000880F0020881F0020044B1B68B3F5005F9A
:102FE00001D3FFF7C5BF0120704700BF881F002035
:102FF0008318B3F5805F2DE9F34705460F46164663
:103000001AD8304C00EB040841463846FDF786FBE1
:10301000002854D0324639464046FDF7AFFBFFF753
:103020005DFF814630B104F580583EB9FFF7D4FF0B
:10303000044639E0FFF760FF00243CE0052EB2466D
:1030400028BF4FF0050A052200210DF10300FDF70E
:103050000BFCC5F3024343EACA03524639468DF8D6
:1030600000300DF103002B0A8DF801308DF802506D
:10307000FDF784FBDDE90023D8F8000000F0F6F846
:10308000044688B1D8F800300833C8F80030FFF79C
:10309000A3FF0128044604D1A6EB0A065544574471
:1030A000C3E7022818BF0024B9F1010F03D1FFF7CD
:1030B00023FF0028C0D0204602B0BDE8F0870124DD
:1030C000F9E700BF880F00207FB5FFF7F7FE00F09B
:1030D0006FF8044610B9FFF7F1FE5BE04FF40072A1
:1030E0000020314900F075F82F4D044610B9FFF764
:1030F000E5FEF0E72AA3D3E900234FF480512846E8
:1031000001F008FF06460C464FF4805002A900F07B
:1031100078F8DDE902239C4208BF964201D0FFF710
:10312000CDFE41F208046946204600F06AF80346E5
:1031300040B3DDE9000350EA030220D010F0C00FD5
:10314000CDE9020304F10804C1B2C0F3811318D120
:103150000A0400F47F46C0F3074002F4E022304343
:103160001043CA0800EBD101B1F5805F0AD80DF118
:103170000B012844FDF702FBB4F5005FD3D1012316
:1031800000E00023094A14603BB9FFF7F1FE044652
:103190000028A0D0204604B070BDFFF71DFFF6E761
:1031A00025232284E49CF2CB880F0020881F002076
:1031B00008B500F0CBF8012008BD0120704708B524
:1031C000002000F0C5F8B0FA80F0400908BD0120E9
:1031D000704738B5D5002A460C4600F0D6F818B925
:1031E00021462544A94203D1B0FA80F0400938BDF8
:1031F000D1E90023D243DB4341F8082B41F8043CDA
:10320000F0E70122FFF7E5BF2DE9F04706468846C3
:1032100015460027C0B0202DA94628BF4FF0200931
:103220004FEAC90A5246684608EBC701FDF7A6FAFD
:1032300000246B464C450DD152466946304600F09D
:10324000C2F888B92D1B56442744E4D1012040B070
:10325000BDE8F087D3E90001C043C94343F8080B38
:1032600043F8041C0134E5E70020F0E707B5CDE999
:10327000002369460122FFF7C7FF03B05DF804FB96
:10328000002208231146014802F0B0BB0C080040A0
:1032900008B5FFF7F5FF30B1062002F0E3FB02F0BE
:1032A00019FC002008BD4FF0FF30FBE738B502F0F5
:1032B0005FFE00F57A75FFF7E3FF78B1052002F0B5
:1032C000D1FB02F0E1FBC4B202F004FC02F050FEBC
:1032D000A84206D214F00100EDD138BD4FF0FF3006
:1032E000FBE76FF00100F8E7F7B51F468DF8071010
:1032F0000B0A090C064615468DF804008DF80630B9
:103300008DF80510FFF7BCFFE8B104210DEB0100BB
:1033100002F0CCFB044648B945B1022E0BD0032E77
:103320000ED12846B9B202F0CBFB044602F0D2FB24
:10333000204603B0F0BD2846B9B202F0B7FBF4E76F
:103340004FF0FF34F2E74FF0FF34F1E702F012BB29
:1033500000F58033B3F5002F10B5044612D283B2C6
:1033600083B9FFF7A3FF78B9FFF792FF60B903466F
:1033700002462146D820FFF7B7FF28B9BDE8104024
:10338000FFF794BF4FF0FF3010BD2DE9F041074625
:103390000D461646FFF78AFF0446804638B132468E
:1033A00000212846FDF760FA2046BDE8F08133464B
:1033B0002A4639460320FFF797FF04460028F3D03A
:1033C00032464146EDE72DE9F04106460F461546E7
:1033D00075B9FFF76BFF044638B9FFF751FF30B3FB
:1033E000042002F03FFB02F075FB2046BDE8F081AF
:1033F0005FFA86F8C8F58078A84528BFA846FFF789
:1034000055FF04460028F0D1FFF742FF044600288C
:10341000EBD143463A4631460220FFF765FF0446AA
:103420000028E2D147444644A5EB0805D0E74FF019
:10343000FF34DAE730B510F47F4F85B00190C0F368
:103440000725C0F3074217D109B1304B9A5C8DF8BC
:103450000C208DF80D208DF80E2000209DF80C30EA
:1034600063F307009DF80D3063F30F209DF80E30D5
:1034700063F3174005B030BD9DF8044061B3234BA2
:103480009A5C0620FF236043591BB0FBF3F06FF0FA
:103490005403434303EB440303EB4303DBB203FB5B
:1034A00005F4C3F1FF036B4324121B12C4F1FF04A4
:1034B000C3F1FF03514354435343C1F30721C4F302
:1034C0000724C3F30723D2B2062819D8DFE800F097
:1034D0000608110F1418060092B2D2E714461A46D5
:1034E0008DF80C208DF80D408DF80E10B5E71346C1
:1034F00022460C461946F3E71C4613460A46F9E7EE
:1035000013460A4621461C46EAE700BFE892000837
:10351000012184B004B0FFF78DBF012830B501D878
:10352000C0B230BDB0F5F75F88BFFF224FF0010495
:103530009EBF42090832D2B2A3185910C3F34705FF
:10354000C3F34F035B439BB2834205D96A1ED2B2D9
:103550009442F1D9601EE3E7FF2902D06C1CE4B26B
:10356000F6E70846DDE7000010F0400316BFC2434F
:103570000246D2B210B502F00F0103B10131094C7D
:10358000C2F3011204EB42035B78594314F8123082
:10359000020603EB2113DBB244BF5B42DBB283F0D4
:1035A000800010BDD092000884B00190C0F30723C2
:1035B0001148283110F81100E4214843C2EB1020D3
:1035C0001C300028B8BF4042A3EBC00000B220EA84
:1035D000E070584300128DF805000020019BDAB21C
:1035E00062F30700C3F3072262F30F20C3F307431C
:1035F00063F3174004B07047000C002084B00190C2
:10360000C0F307431148283110F81100E421484362
:10361000C2EB10201C300028B8BF4042A3EBC00012
:1036200000B220EAE070584300128DF80600002036
:10363000019BDAB262F30700C3F3072262F30F20A3
:10364000C3F3074363F3174004B07047000C002036
:1036500084B0019000208DF80420019BDAB262F35F
:103660000700C3F3072262F30F20C3F3074363F39A
:10367000174004B07047000084B0019000200A4B4E
:10368000283113F811309B1A8DF80430019BDAB2FF
:1036900062F30700C3F3072262F30F20C3F307436B
:1036A00063F3174004B07047000C002084B0019011
:1036B0000B4800EB410090F8513000209B1A8DF828
:1036C0000430019BDAB262F30700C3F3072262F30E
:1036D0000F20C3F3074363F3174004B0704700BFE4
:1036E000000C0020C94384B00190C9B2C0F3074068
:1036F0004143002009128DF80610019BDAB262F3F3
:103700000700C3F3072262F30F20C3F3074363F3F9
:10371000174004B0704784B0C9B20190C1F1820172
:10372000C0B20029A8BF40188DF804000020019BFA
:10373000DAB262F30700C3F3072262F30F20C3F388
:10374000074363F3174004B0704784B003EB830270
:10375000BDF81030019013449BB2FF2B28BFFF230C
:10376000DB43C0F30740DBB20344FF2B28BFFF233A
:1037700000208DF80630019BDAB262F30700C3F334
:10378000072262F30F20C3F3074363F3174004B02B
:1037900070470000024B1A7810431870704700BF42
:1037A000911F0020012310B5044C08221C2104485D
:1037B0002370FFF779FB0023237010BD911F0020B9
:1037C00084230020082208B51C210348FFF724FBAE
:1037D0000022024B1A7008BD84230020911F002094
:1037E00084B004B0FFF794BE2DE9F74F314D074682
:1037F00005EB00135A5C8846FF2A4FEA001626D0D4
:103800000024DFF8B4B05E440E444FF0000905EB2D
:1038100004130BEB041A13F801CBBCF1FF0F0CD00F
:10382000E1B28F4216D15FFA89F1884512D1317821
:103830002031FF2928BFFF21317009F10109B9F1B9
:10384000100F0AF1010AE6D10134052CDDD103B0D5
:10385000BDE8F08F02F1280E0CF1280C15F81C00C1
:1038600015F81E1005EB4C0C05EB4E0E091A9CF8D2
:1038700001C09EF801000193A0EB0C0080B2404310
:1038800001FB010080B20092FFF747FEDDE9002353
:103890002828D2D89AF80010C0F12800C0B2102809
:1038A00094BF09181031FF2928BFFF218AF80010A2
:1038B000C3E700BF000C0020921F0020FFF782BF6B
:1038C00010B5084C25232046032200F8013B064989
:1038D000FCF754FF4FF67F73A380BDE81040FFF75D
:1038E00071BF00BF842300206C8D0008002070474A
:1038F00070B506460D461446FFF7F8FF044B03EB80
:1039000006135B5DFF2B1EBF23540130C0B270BD98
:10391000000C0020014BDB68184700BFD89200085C
:1039200010B4024C6468A44610BC6047D8920008EA
:103930002DE9F74F04780646C4EBC4046400E4B2F2
:1039400004F10E085FFA88F8B8F1430FC2460F463B
:1039500028BF4FF0430ADFF88090204A99F80450BE
:10396000DFF87CB0AB08158803FB0555C5F30725C8
:10397000E1B28A4507D8B8F1420F8CBF0020012080
:1039800003B0BDE8F08F14F80B2073781A4220D0F2
:1039900099F8020099F801302A4643EA002399F881
:1039A000030043EA0040B847C0F307238DF8040042
:1039B000C0F307408DF805308DF806000198FFF739
:1039C0000FFFC0F30743C2B2C0F307212046FFF741
:1039D000A7FF0134CCE700BF842300208C23002004
:1039E000D60C00200149FFF7A3BF00BFA93500088E
:1039F0000149FFF79DBF00BFFD3500080149FFF7F2
:103A000097BF00BF513600080149FFF791BF00BFC3
:103A1000793600080149FFF78BBF00BFAD360008BB
:103A20002DE9F04F0478364DC4EBC4046400E4B2D1
:103A30002F7904F10E06F6B20137432EB14628BFA6
:103A40004FF04309FF2F28BFFF274FF6FF73804633
:103A5000B3FBF7F785B0DFF8ACB0DFF8ACA00191AD
:103A6000E0B2814506D8422E8CBF0020012005B06F
:103A7000BDE8F08F14F80B2098F801301A422DD0D1
:103A80009AF800302149013B5BB21A0628D53A4624
:103A90002979A8780131FF2928BFFF216B7851438C
:103AA00043EA0023E878C1F30F2143EA0040019B79
:103AB0009847C0F307238DF80C00C0F307408DF83A
:103AC0000D308DF80E000398FFF78AFEC0F3074310
:103AD000C2B2C0F307212046FFF722FF0134BFE73F
:103AE0005A5C82420AD103F10C020AEB420292F8BC
:103AF00001C092784CEA0222BA42C9D3013BC4E722
:103B000084230020D60C002090230020A123002035
:103B10000149FFF785BF00BFE53600080149FFF7FF
:103B20007FBF00BF173700082DE9F04F0C788246A1
:103B3000C4EBC4046400E4B204F10E07FFB2432FE7
:103B40003B4628BF43238B468BB00293404B0492E5
:103B50001B7803933F4B03EB4408D6330593029A3B
:103B6000E3B29A4206D8422F8CBF002001200BB04E
:103B7000BDE8F08F059BE25C9BF801301A4220D033
:103B8000D14600250322344908A8FCF7F7FD304B45
:103B90000AF101061E44039A5FFA89F39A4214D887
:103BA0002E4BD87845432D128DF822500898FFF7F8
:103BB00017FEC0F30743C2B2C0F307212046FFF748
:103BC000AFFE013408F10208C9E716F8013B98F886
:103BD000501098F85120C91AF37989B2D21A92B2CA
:103BE00002FB02F001FB010080B207920691FFF791
:103BF00094FC1A4A09F10C0C92F804E0144A0EF1F4
:103C0000010EBEF1FF0F28BF4FF0FF0E02EB4C0C70
:103C100003469CF801009CF802C0079A40EA0C2079
:103C20000EFB00F006998DF82250C0F30F20049D82
:103C3000009012B2089809B2A847C0F307238DF884
:103C400020008DF82130C0F3074509F10109A2E7F2
:103C500090230020000C00208523002084230020D6
:103C6000044B01461B78044A013B23EAE373D8B2B4
:103C7000FFF75ABF902300204B3700082DE9F3418E
:103C800004781E4AC4EBC404537805466400907857
:103C9000E4B243EA002304F10E06D078F6B2432ED4
:103CA00043EA0040374628BF4327FFF799FDC0F39A
:103CB00007238DF80530DFF84880C0F307438DF8FF
:103CC00004008DF80630E3B29F4206D8422E8CBF26
:103CD0000020012002B0BDE8F08114F808206B78C4
:103CE0001A4208D020469DF806309DF804209DF821
:103CF0000510FFF715FE0134E5E700BF842300201F
:103D0000D60C00202DE9F0430478DFF8B890C4EB1E
:103D1000C4046400E4B204F10E0585B0EDB2432D95
:103D20004FF0030209F10101064601A82F4628BF02
:103D30004327FCF723FD019899F80180FFF750FD18
:103D4000C0F307238DF8093099F804308DF8080086
:103D500098448DF80480C0F307408DF80A0001985C
:103D6000FFF73EFDC0F307238DF80D30DFF85880D4
:103D7000C0F307438DF80C008DF80E30E3B29F427C
:103D800006D8422D8CBF0020012005B0BDE8F0838D
:103D900014F808307278134211D0DB07204643BF75
:103DA0009DF80E309DF80C209DF80D109DF80A30FE
:103DB0005CBF9DF808209DF80910FFF7B1FD0134A4
:103DC000DCE700BF84230020D60C00202DE9F74F4C
:103DD0000478DFF88480C4EBC4046400E4B204F126
:103DE0000E05EDB2432D06464FF00302684608F17A
:103DF0000101AA46DFF8649028BF4FF0430AFCF7A0
:103E0000BDFC98F80470A9F1850BBF08E3B29A4590
:103E100006D8422D8CBF0020012003B0BDE8F08FF2
:103E200014F8092073781A4213D01BF814301A09B9
:103E300098F8013002FB07338DF800300098FFF747
:103E4000CFFCC0F30743C2B2C0F307212046FFF7FF
:103E500067FD0134DAE700BF84230020D60C002080
:103E60002DE9F74F0478DFF88480C4EBC4046400C4
:103E7000E4B204F10E05EDB2432D06464FF0030205
:103E8000684608F10101AA46DFF8649028BF4FF0A8
:103E9000430AFCF773FC98F80470A9F1860BBF087D
:103EA000E3B29A4506D8422D8CBF0020012003B012
:103EB000BDE8F08F14F8092073781A4214D01BF86B
:103EC000143007FB03F298F8013003EB52138DF81E
:103ED00000300098FFF784FCC0F30743C2B2C0F380
:103EE00007212046FFF71CFD0134D9E78423002079
:103EF000D60C00202DE9F7430478DFF8B090C4EB2E
:103F0000C4046400E4B204F10E05EDB2432D4FF099
:103F1000030209F10101064668462F4628BF4327E0
:103F2000FCF72CFC224B99F80380188899F8043090
:103F3000DB085843C0F30720FFF716FBA0F180030E
:103F40005BB2002BBCBFC0F1800043B25B00DBB2B0
:103F500008FB03F31B128DF802300098FFF740FCBA
:103F6000DFF85080C0F307238DF80400C0F307404A
:103F70008DF805308DF80600E3B29F4206D8422D39
:103F80008CBF0020012003B0BDE8F08314F80820A6
:103F900073781A4208D020469DF806309DF8042018
:103FA0009DF80510FFF7BCFC0134E5E784230020F1
:103FB0008C230020D60C0020014B9B68184700BFC3
:103FC000D89200082DE9F04F037885B0C3EBC30306
:103FD0005B005FFA83FB0BF10E095FFA89F94B4630
:103FE000432B28BF43230093837807464BB100221D
:103FF00011461046FFF7E0FF502200213948FCF738
:1040000033FC3B786BB9384C208801F0EEFF182860
:104010008CBF01220022354B1A7002D901F0E0FF5B
:10402000208000252C46A84603E0B8F10D0F51D89A
:1040300000242F494FEA051A01EB05131A191B5DDD
:1040400001925B453ED3009A93423BD20B4493F8D6
:10405000D6207B7808F101081A425FFA88F831D03F
:10406000204B244A9A441AF80460A6F1550323EA27
:10407000E373C3F1AA038DF808309378D2788DF8F2
:10408000093006F1AA03FF2B28BFFF2303EB4303EC
:104090000233DBB253431B128DF80A300298FFF74C
:1040A0009FFBC0F30743C2B2C0F307210198007819
:1040B000FFF736FC0D4B1B7823B1013E26EAE6766E
:1040C0000AF804600134E4B2102CB2D10135EDB22B
:1040D000052DAAD1B9F1420F8CBF0020012005B0F7
:1040E000BDE8F08F921F0020E21F0020901F0020EB
:1040F000000C0020842300202DE9F04F85B00646F7
:104100000F461546FDF7DCFF8046002854D0002DF1
:1041100055D03946304602AAFFF7EAFB0446DFF8DD
:10412000DC9099F800302344082B23DDC4F1080A01
:10413000611C5246494409F10100FCF71FFB04F1E0
:1041400009015246494409F10900FCF717FB09EB44
:1041500044014FEA4A02193109F11900FCF70EFB3C
:1041600004F111015246494409F11100FCF706FB24
:1041700089F800A0002299F800B01146914602ABE0
:10418000DFF878C0DFF878E00193D0B200EB0B03E2
:10419000DBB28442009314D85C44E4B209B1174BFB
:1041A0001C704DB1174B1B7803F0FC032C2B03D173
:1041B00039463046FFF718FB05B0BDE8F08F2C46B6
:1041C000ADE7019B013213F801AB0193009B0AF1AB
:1041D00028010CEB03001EF811300EEB4101437077
:1041E000009B49780C330CEB4303417280F811A01B
:1041F000414683F8019083F80290C6E7E41F00204F
:10420000000C00208423002038B53A4B05461B786B
:10421000394A83421FD139491378097803F00303DF
:104220005B1A18BF0123364CA370537962789A4207
:1042300005D00022114610466370FFF7BDFE0E2D1B
:1042400012D8DFE805F00A1323272B2F33373B3F23
:1042500043474B4F53000123E5E7A07848B10022C4
:1042600011461046FFF7A8FE002002E02448FFF7A1
:1042700005FD23780133237038B90222214B1A70CF
:10428000A27812B90DB903221A7038BD1C48FFF785
:1042900039FDEEE71A48FFF799FDEAE71848FFF7FE
:1042A000DFFDE6E71648FFF725FEE2E71448FFF7D3
:1042B00099FBDEE71248FFF79BFBDAE71048FFF7B0
:1042C0009DFBD6E70E48FFF79FFBD2E70C48FFF7B0
:1042D000A1FBCEE70A48FFF775FECAE70848FFF7DB
:1042E00017FCC6E70648FFF719FCC2E70448FFF7CA
:1042F000B7FCBEE7330D002084230020340D0020DE
:10430000300D0020350D00200120704708B5FFF763
:10431000FBFF08BD08B50178C1EBC1014900C9B276
:10432000A1F10E00432928BF432100F0FE00FCF755
:1043300015FB08BD2DE9F0413A4C3B4E206801F0D9
:104340005BFE054601F014FE2060002496F800E0B4
:10435000A4467146C5F57F47FF37E3B29E4514D8A2
:10436000BCF1000F00D03170304B1B782BBB304BB1
:104370001B7813F0030400D09C082E4D2B78032BE0
:1043800029D8DFE803F01C2A364204F10C0206EBC0
:104390004202537892F80280013443EA08239F4294
:1043A00029BF5B1901F1FF315370C3F307233ABFF3
:1043B0004FF0010CC9B29370CFE70024DDE7002273
:1043C0001D4B19491A701D4B292218601C48FCF717
:1043D000D5F901232B70BDE8F0812046FFF714FFCB
:1043E000002CF8D0FFF792FFBDE8F0411248FFF72C
:1043F00091BF144B144A1C700D4B1B78C3F301037F
:104400001370FFF787FA0323E4E7104B1B780BB117
:10441000FFF7D8F9094B186801F0EEFD0F28DAD93B
:104420000023D7E710200020E41F002014200020E4
:1044300084230020350D0020300D00208C23002027
:1044400090230020330D0020340D0020911F002008
:1044500010B50024114B1B68984711481022FF210A
:1044600000F8194BFCF700FA0E481022FF2100F863
:10447000194BFCF7F9F9FDF755FD18B9FDF7C6FD25
:10448000FFF71EFAFFF78EF9074B1B7813F0FC0FAE
:1044900003D1BDE81040FFF713BA10BDD892000851
:1044A00090230020E41F00208423002070B50446E0
:1044B0000A4E88B135787DB92846FFF7A5FE084B2E
:1044C000084A1D70084B1B78C3F301031370FFF7F4
:1044D00021FA0322054B1A70347070BD142000209D
:1044E000330D0020340D002084230020350D0020E2
:1044F000044A137883F0010313700022024B1A70F0
:10450000FFF748B984230020350D00200020FFF775
:10451000EFBF0120FFF7ECBF064A137813F0030347
:1045200004BF05490B700121137861F30103137077
:10453000704700BF84230020350D002008B5FFF729
:10454000EBFFBDE808400120FFF724B9054B1A78BE
:1045500092071EBF0021044A11701A786FF30102FE
:104560001A70704784230020350D0020024B187804
:1045700000F00300704700BF8423002010B40B4CF0
:1045800002462378084699070ED04AB9012262F301
:10459000870300222370064B1A7010BCFFF7FAB88D
:1045A0000E2A88BF0E22F2E710BC70478423002039
:1045B000350D00200021FFF7E1BF0121FFF7DEBF2D
:1045C000014B18788008704784230020054B014672
:1045D0001B789B0801330F2B34BF18460120FFF7CF
:1045E000CDBF00BF842300200120FFF7EFBF0000F4
:1045F000064B01461B78C3F38503013B13F0FF0311
:1046000014BF18460E20FFF7B9BF00BF8423002057
:104610000120FFF7EDBF000030B4084C05461846F6
:1046200023789B0708D0A02A28BFA0226570A1701C
:10463000E27030BCFFF7AEB830BC70478423002076
:104640000023FFF7E9BF0000014B5878704700BF17
:1046500084230020014B9878704700BF84230020FA
:10466000014BD878704700BF8423002003490346DC
:104670004878CA782A308978FFF7CEBF8423002093
:104680000120FFF7F3BF0000054910B44C78034642
:104690002A3CCA78A0B2897810BCFFF7BDBF00BF22
:1046A000842300200120FFF7EFBF000010B4064C68
:1046B0000346A178E2784031FF2928BFFF216078C6
:1046C000C9B210BCFFF7A8BF842300200120FFF768
:1046D000EDBF000010B4064C0346A178E2784039E3
:1046E00021EAE1716078C9B210BCFFF795BF00BF45
:1046F000842300200120FFF7EDBF000010B4064C1A
:104700000346E278A1782832FF2A28BFFF2260788A
:10471000D2B210BCFFF780BF842300200120FFF736
:10472000EDBF000010B4064C0346E278A178283AA9
:1047300022EAE2726078D2B210BCFFF76DBF00BF10
:10474000842300200120FFF7EDBF0000024B187109
:104750000020FFF71FB800BF84230020014B187909
:10476000704700BF84230020044A13794033FF2B95
:1047700028BFFF231371FFF70DB800BF842300206B
:104780000120FFF7F1BF0000034A1379403B23EA01
:10479000E3731371FEF7FEBF842300200120FFF7AF
:1047A000F3BF0000014B5879704700BF84230020FD
:1047B000024B58710120FEF7EDBF00BF842300209B
:1047C00008B50021742000F031F9BDE8084001214E
:1047D000772000F02BB910B501F090F9002174207A
:1047E00000F04AF80021772000F046F80024012369
:1047F000E0B21A461946013400F0BEF8432CF6D157
:104800000021742000F036F9BDE810400121772026
:1048100000F030B908B50B46064940000B704A70ED
:104820006423022200F0FE0001F0A2F9B0FA80F049
:10483000400908BD39250020F8B50E460024400087
:104840000C4FC5B200233C703219013312F8011B22
:10485000102BF954F9D1642311223946284601F06E
:1048600087F920B91034C02CECD10120F8BD00200C
:10487000FCE700BF3925002070B50446C5220D466F
:10488000FE21FFF7C7FF0022FD212046FFF7C2FFF0
:104890000026F1B2002220460136FFF7BBFF182E9A
:1048A000F7D1C522FE212046FFF7B4FF0122FD21EA
:1048B0002046FFF7AFFF0026F1B200222046013666
:1048C000FFF7A8FFC02EF7D1C522FE212046FFF733
:1048D000A1FF0322FD212046FFF79CFF00220F21AC
:1048E0002046FFF797FF002210212046FFF792FF96
:1048F000FF2201212046FFF78DFFAA0142F00102AD
:104900002046002102F0C102FFF784FFBDE870409D
:104910004FF47A7002F0A5BA4228F0B514D84FF0DF
:10492000C00C0A4C04EB800514F82040084804F041
:1049300003040CFB0400AF78EE786D784155C25546
:1049400001228355034B1A55F0BD00BF718E00083C
:10495000B923002047200020F8B505460E4617462B
:10496000002420463B46324629460134FFF7D4FF57
:10497000432CF6D1F8BD00002DE9F04F1826284D44
:1049800005EB800415F82050012094F801B094F84C
:1049900002C0E778234C05F0030506FB05464FEA05
:1049A000DB0A0BF0070B00FA0BF04FEADC094FEAC9
:1049B000D70816F90AE00CF0070C07F0070740B219
:1049C00021B34EEA000006F80A001820012600FB79
:1049D000054006FA0CFC10F909104FFA8CFCC2B124
:1049E00041EA0C01182200F80910012102FB0544DC
:1049F00001FA07F714F908207FB26BB13A4304F8C3
:104A000008200122084B5A55BDE8F08F2EEA00001D
:104A1000D9E721EA0C01E5E722EA0702EFE700BF48
:104A2000718E0008152000204520002070B50E4E24
:104A30000546735C0C469BB1C522FE21FFF7EAFEDA
:104A4000FD2101222846FFF7E5FEC021074B28463D
:104A500001FB0431FFF7F0FE10B90122044B1A5597
:104A60000023335570BD00BF47200020B92300202C
:104A7000452000202DE9F041DFF84480064618F873
:104A800001300C46B3B1C522FE21FFF7C3FE002260
:104A9000FD213046FFF7BEFE18230025094F03FB1A
:104AA0000477E9B2304617F8012B0135FFF7B2FE63
:104AB000182DF6D1002308F80430BDE8F08100BFBE
:104AC000452000201520002000B1104708470000B5
:104AD00038B58C780546002C42D0FDF71DF9A5F5B8
:104AE000F043203B00F02200142B0FD8DFE803F046
:104AF0000B1015181B1E2124272A2D3034360D0DBE
:104B00000D0D0D0D0D00FFF704FD0024204638BDEE
:104B1000144A1549FFF7D8FFF7E7134A1149F9E797
:104B2000124A1349F6E7124A1049F3E7114A1249AB
:104B3000F0E7114A0F49EDE7104A1149EAE7104A38
:104B40000E49E7E70F4A1049E4E70F4A0D49E1E74C
:104B50000120FFF732FDD8E70520FAE70920F8E742
:104B60000124D3E711460008E9450008A5460008DE
:104B700081460008F5460008CD4600084547000874
:104B80001D4700089D4700088147000810B52220F6
:104B9000FEF7F4F82428044601D0002010BD23209D
:104BA000FEF7ECF80828F8D12046FEF7E7F8831E58
:104BB00058425841F2E710B5041E14BF2421FF21CA
:104BC0002220FEF743F9002C14BF0821FF212320E7
:104BD000FEF73CF9002C18BF0221BDE8104008BFC9
:104BE000FF212420FEF732B9704708B52520FEF7D3
:104BF000C5F808BD704710B50446FFF7FBFFE1B2EA
:104C00002520BDE81040FEF721B908B50020FFF7C8
:104C1000D2FF0020FFF7EFFF00F06EFC00F027FD51
:104C2000BDE808400120FFF7C6BF08B5FFF7DCFF6D
:104C3000FFF7DBFFFFF7DEFFFFF7A8FF18B9BDE8BE
:104C40000840FFF7E2BF08BDFFF760BC08B50346A8
:104C5000887840B1A3F5EE427F2A03D8D8B200F09D
:104C600012FD002008BD0120FCE7FF230370704700
:104C70000020704710B503780446013B032B0BD886
:104C8000DFE803F0020B1215FFF7EAFCA023C0EBEC
:104C90000020B0FBF3F0607010BDFFF767FC002848
:104CA000F9D0FFF78DFCF6E7FFF758FDF3E7FFF7C4
:104CB000CBFC6070FFF7CEFCA070EDE738B5037851
:104CC0000446013B032B2CD8DFE803F002111E231E
:104CD000FFF7BAFC0546FFF7BDFCA023627801464A
:104CE0005A43A8B2120ABDE83840FFF7A9BC43787E
:104CF0001BB9BDE83840FFF729BCFFF70DFC607811
:104D0000BDE83840FFF756BC4078BDE83840FFF7B3
:104D10001DBD45788478FFF7A3FC2146024628464E
:104D2000E1E738BD034610F8022B082A05D0092A0E
:104D300005D0072A05D1FFF7C1BFFFF79BBFFEF7DC
:104D4000BDBDFF221A70704708B54378032B03D10D
:104D5000BDE80840FFF7E6BFFFF787FF08BD2DE974
:104D6000F04104460D46FFF783FF002840F0D08055
:104D70002378013B142B48D8DFE803F00B15425C85
:104D8000626E7171714747767A808B96999CA7B253
:104D9000BB00002363700C23A37029462046BDE8A6
:104DA000F04101F03FBC6378013B032B2DD8DFE8D5
:104DB00003F0020C0F2101F0DBF8030EA370030CCB
:104DC000E370030A23716071E7E7FFF70EFFF4E772
:104DD0002646A77804F11C08042FDED8F8B2FDF7A8
:104DE00047FC030AF37030710236B04507F1010742
:104DF000F2D1D2E70023A370E37023716371CCE793
:104E00006378022B04D0052B10D0FF232370C4E756
:104E1000E378A07840EA0320237940EA03406379ED
:104E200040EA036000BAFFF7E6FEB6E7A078FFF7B6
:104E30000BFFB2E7E278A178607800F0F7FAC0E7FC
:104E400062792379A17843EA02235BBAE278607839
:104E50009BB200F001FBA0E700F04EFB9DE7294666
:104E60002046FFF771FF98E700F0CFFB607094E7F2
:104E700000F0CDFB030A6370A0708EE76078A37822
:104E8000E17840EA032040BA221D80B200F0C2FB64
:104E900083E76078A378E17840EA032040BA221DD6
:104EA00080B200F0D1FB78E700F0E1FB75E700F09D
:104EB000B3FADBE76078A378E17840EA032040BAF0
:104EC000221D80B200F062FB67E76078A378E1788A
:104ED00040EA032040BA221D80B200F06EFB5CE77E
:104EE000E278A178003A18BF0122607800F0C9FA90
:104EF00067E762792379A17843EA0223E2785BBA13
:104F0000003A18BF012260789BB200F0D9FA44E75A
:104F1000BDE8F081F0B54518044619461046002654
:104F2000AC4200D3F0BD14F8012B4FEA011C424003
:104F300093184FEA021E41EB01004CEA127C13EB7E
:104F40000E0340EB0C004FEA421E9B184FEA411C37
:104F500041EB00004CEAD26C13EB0E0340EB0C006B
:104F60004FEAC21E4FEAC11C17024CEA526C13EB07
:104F70000E034FEA012140EB0C0041EA1261DA19FD
:104F800040EB01013944B018CAE7000038B50546C6
:104F90008878002800F0DC80A5F5E045ABB2222B34
:104FA00000F2BB80FCF7D2FF6A4C013D2080212D2E
:104FB00012D8DFE805F04DBD551B1F59235D692F41
:104FC000B5336D3771973B759F417B8327612B65A7
:104FD000477F8EA9B31651C5237843F00103237090
:104FE00095E0637843F00803637090E0237843F022
:104FF0000203F4E7237843F00403F0E7237843F057
:105000000803ECE7637843F00103EDE7637843F0CE
:105010000203E9E7237843F01003E0E7237843F045
:105020002003DCE7237843F04003D8E7FCF718FAC5
:10503000237843F08003D2E7237823F00C0343F076
:105040000C03CCE7637823F0030343F00303CBE7BF
:1050500023786FF30003C2E763786FF3C303C3E7FA
:1050600023786FF34103BAE723786FF38203B6E73F
:1050700023786FF3C303B2E763786FF30003B3E7FA
:1050800063786FF34103AFE723786FF30413A6E768
:1050900023786FF34513A2E723786FF386139EE717
:1050A000FCF7DEF923786FF3C71398E7237823F032
:1050B0000C0394E7637823F0030395E72378C3F3A5
:1050C000800282F00102D2B262F3820362F3C30370
:1050D00085E76378DA4302F0010262F3000362F3CA
:1050E000410381E72378C3F3801282F0010262F367
:1050F000861374E7FCF7B4F92378C3F3C01282F087
:10510000010262F3C7136AE70120FCF781FF2088E0
:10511000FCF71FFFFCF7A4F9002038BD0020F4E7DE
:105120002378C3F3001282F0010262F3041356E7FE
:105130002378C3F3000282F0010262F300034EE71A
:105140006378C3F3C00282F0010262F3C3034BE74A
:105150000120E2E76E230020F8B5174B1749C2087B
:105160001F5C174B8D5C17499B5C00F007008E5C41
:105170000341054113F0010446FA00F005F0010572
:1051800000F0010602D0E120FBF722FE15B1E62077
:10519000FBF71EFE3846FBF70DFF15B1E620FBF7C7
:1051A00099FE14B1E120FBF795FE26B1BDE8F84069
:1051B0002C20FBF7FFBEF8BD08940008E893000818
:1051C00088940008F89300082DE9F04104460E4643
:1051D0004FF00A08214F207800283DD0012838D10F
:1051E0006378012B0ED1A078A51CFBF7E3FE2C46BB
:1051F00035460134002DEED06420013D01F031FE32
:10520000EDB2F7E7022B04D1A078A51CFBF7E0FD77
:10521000EDE7032B04D1A078A51CFBF75BFEE6E7C6
:10522000042B01D00134E3E72246002512F8023FA7
:10523000D95D1446490706D4002DD9D0642001F069
:1052400010FE013DF8E7303B08FB053512F8013F41
:10525000EEE7FFF781FFCBE7BDE8F081718D000835
:105260004FF4E15001F076BC012370B50025154CD8
:10527000154E237020224FF48041304602F061FD2C
:1052800020224FF40051304602F05BFD01352278B8
:10529000EBB29A42EED8FFF7E3FF002225780B48E5
:1052A000094CD3B2AB4200D370BD21692369C1F36D
:1052B00080311B0B03F002030B4300F8013B01326A
:1052C000EFE700BF4C200020000400404A200020EF
:1052D0002DE9F0470025A846494E4A4F88B033785B
:1052E000ECB2A34203D8404608B0BDE8F087464B75
:1052F0001A691B69C2F380321B0B03F002031343CC
:10530000424A115D01F00300984272D043EA8103E2
:10531000DBB23F49135503F00F028A5C395D0A4442
:1053200051B2033202F0FF02062A395503D803F0C6
:105330000303032B61D100295DDD4FF001094FF01C
:10534000FC0A344A8DF80840135D8DF809A001333A
:1053500013558DF80A9000F043FE40EA0900ADF8BD
:105360000C00DDE90201FBF7FBFC00238DF8004097
:105370008DF802308DF801A000F032FE40EA0900FD
:10538000ADF80400DDE90001FBF7EAFC4B463A57B3
:10539000002A2ADA4FF001094FF0FD0A1D4A8DF864
:1053A0001840135D8DF819A0013B13558DF81A9024
:1053B00000F016FE40EA090008ABADF81C0013E946
:1053C0000300FBF7CDFC00238DF810408DF8123060
:1053D0008DF811A000F004FE40EA0900ADF81400B9
:1053E000DDE90401FBF7BCFC4B4600223A5548EAD4
:1053F0000308013573E70023C9E70023F7E700BF7F
:105400004C20002049200020000400404A200020B9
:10541000989400084B20002004207047520002EBB3
:105420004112A02101FB002026307047032838B527
:1054300010D804290ED80F2A0CD8FFF7EFFF054625
:10544000FDF79CFC0402681CFDF798FCA4B2204305
:1054500080B238BD0020FCE7032870B51C460FD889
:1054600004290DD80F2A0BD8FFF7D8FF0546190AD3
:10547000FDF7ECFCE1B2681CBDE87040FDF7E6BC4E
:1054800070BD032870B5164618D8B9B9002A4FEA7E
:10549000800000F2A62514BF002002202844FDF75A
:1054A0006DFC002E4FEA002414BF01200320284485
:1054B000FDF764FCA4B2204380B270BD0020FCE77D
:1054C000032870B516461D4615D8A1B98000002ADC
:1054D00000F2A62414BF00200220190A2044FDF780
:1054E000B5FC002E14BF01200320E9B22044BDE822
:1054F0007040FDF7ABBC70BD2DE9F84300250026D8
:10550000ECB216E0FBF7F8FAA8425FFA87F914DD6F
:105510004A4641462046FBF7F1FA03464A464146D1
:1055200020460137FFF798FF102FEBD10136052EEB
:1055300020D000275FFA86F8E4E70123EEE7012296
:1055400000212046FBF7F0FA012203460021204605
:10555000FFF7B6FF002220461146FBF7E5FA0346A7
:105560000022204611460135FFF7AAFF042DC6D1BF
:10557000BDE8F883FBF7D6FAA842E0DC012300215E
:105580001A462046FFF79CFF0123E9E7F8B51446C9
:10559000002700F126055618B44200D1F8BDA5F148
:1055A0002603B3F5207F06DA2846FDF7E7FB2070D7
:1055B00001350134F0E72770FAE770B5144600F1C1
:1055C00026055618B44200D170BDA5F12603B3F5E7
:1055D000207F03DA28462178FDF738FC01340135B5
:1055E000F0E7032810B406D8042904D80F2A02D8FB
:1055F00010BCFFF71BBF002010BC7047032802D867
:1056000009B9FFF73EBF002070471020704740F6F1
:105610004A5070472DE9F0411446054640F6495777
:105620004FF000085618B44205F2B62001D1BDE88B
:10563000F081BD4205DCFDF7A1FB2070013401358E
:10564000F1E784F80080F9E7F8B51446054640F61E
:1056500049575618B44205F2B62000D1F8BDBD42F4
:1056600002DC2178FDF7F2FB01340135F2E710B5D9
:1056700040F2B624204600210134FDF7E7FBB4F5E3
:10568000805FF7D110BD0F28F7B5044652D840F619
:10569000FF70FDF773FB00284CD140F2B62534BBF8
:1056A000CDE900442846FDF769FB6F1C8DF800002A
:1056B0008DF8014000283DD0012812D13846FDF771
:1056C0005DFBAE1C8DF80100A0B3431E022B19D860
:1056D0003046FDF753FBEF1C8DF8020050B38DF8F8
:1056E000034000216846FFF76FFD3D46DAE7B5F558
:1056F000805F1FD02846FDF741FB08B9013CE4B2AA
:105700000135CCE7042810D102273046FDF736FBDF
:10571000FDB201360DF8070060B17C2807D10135D4
:10572000EDB202AB1D4405F8084C3746D9E7013706
:10573000072FEAD103B0F0BD47F61643984210B5E3
:105740000C461BD1FCF7E8FAA2780D4B72B100F0C1
:10575000AA00002815BF01220022352029201A7036
:10576000FCF7AAFAFCF734FB002010BD1B78002BD5
:1057700014BF35202920FCF7A7FAF3E70120F4E74E
:105780004D200020F8B5144682781D469DF818700B
:10579000284B92B11C7000F023FC274B188004F1B9
:1057A0002003DBB2072B44D8012004F00704A040FB
:1057B000C0B2BDE8F840FBF705BC1E78A6422ED16A
:1057C0001D4B188800F011FCC72828D8AE4205F1FF
:1057D000200415D006F12003DBB2072B06D80120E8
:1057E00006F00706B040C0B2FBF7F5FBE3B2072BAB
:1057F00006D8012005F007039840C0B2FBF7E2FB92
:105800003846E4B2FBF7D6FB072C12D8012005F08E
:105810000705A840C0B2BDE8F840FBF7DCBB04F1C7
:105820002003DBB2072B04D8012004F00704A040BA
:10583000F0E7F8BD4E200020502000200346A3F5DD
:10584000F843183B07B50846062B3BD8DFE803F0C2
:10585000171E0410252C330026230093E12347F65E
:105860001A411A46FFF78EFF002003B05DF804FBD3
:1058700027230093E52347F61B411A46F2E7262328
:10588000E022009347F61841E123EBE72723E422C7
:10589000009347F61941E523E4E72623E22200932B
:1058A00047F61C41E123DDE72723E622009347F674
:1058B0001D41E523D6E72823E522009347F61E4144
:1058C0000123CFE7887818B10022024B1A70CCE789
:1058D0000120CAE74E20002047F67743984270B572
:1058E00006D047F67843984229D00124204670BD5F
:1058F0008C7894B100F02CF8FBF742FE00F028F809
:10590000044600F02BF8054600F02EF82946024622
:105910002046FBF73FFF0024E8E700F019F8FBF70B
:105920003BFE00F015F8054600F018F8064600F0BA
:105930001BF8314602462846FBF72CFFD6E78C7849
:1059400014B100F00BF8D7E700F008F8E7E7000023
:10595000014B1878704700BF370D0020014B1878B5
:10596000704700BF380D0020014B1878704700BF0A
:10597000360D0020194B10B51C786CBB0122082194
:105980001A701748224602F0DCF9224620211448FA
:1059900002F0D7F922461021114802F0D2F94FF453
:1059A0007A7001F05EFA41F6822208210C4802F07A
:1059B000C8F940F282222021094802F0C2F940F2DF
:1059C00082221021064802F0BCF9064801F03BFD96
:1059D0004FF0FF32044B1A6010BD00BF5220002070
:1059E00000040040102600203C0D002010B5194C8A
:1059F00001461846236801332AD14B1C28D0F8B140
:105A0000154B80001882032A05D8DFE802F0021A3D
:105A10001D1F0022DA602160012421F00F0001F037
:105A20000F019960224604FA01F1586002F089F9E9
:105A300009490A4801F0F9FC084801F012FD204626
:105A400010BD4FF48002E5E78022E3E7044AE1E776
:105A50000020F5E73C0D00205420002010260020F7
:105A6000800040001FB501218DF807000DF10F03E4
:105A700004480DF1070201F00FFD9DF80F0005B07D
:105A80005DF804FB10260020002307B5012106481D
:105A90000DF107028DF8073001F020FD9DF8070099
:105AA00003B05DF804FB00BF1026002008B50246D5
:105AB000024801F002FD002008BD00BF10260020B2
:105AC00008B50246024801F009FD002008BD00BFEC
:105AD0001026002010B5074C2368013308D0064873
