:020000040800F2
:1000000000040020B9010008BB010008BB01000882
:10001000BB010008BB010008BB010008BB010008D0
:10002000BB010008BB010008BB010008997900086A
:10003000BB010008BB010008BB0100086387000882
:10004000BB010008BB010008BB010008BB010008A0
:10005000BB010008BB010008BB010008BB01000890
:10006000BB010008BB010008BB010008BB01000880
:10007000BB010008BB010008158F0008BB01000888
:10008000BB010008BB010008BB010008BB01000860
:10009000BB010008BB010008BB010008BB01000850
:1000A00071870008BB010008F98A0008BB0100083D
:1000B000BB010008BB010008BB010008BB01000830
:1000C000BB010008BB010008BB010008BB01000820
:1000D000BB010008BB010008BB010008BB01000810
:1000E00072B6264880F30888254880F30988254899
:1000F00025490860022080F31488BFF36F8F07F052
:1001000095F906F017FD4FF0553020491B4A9142F2
:100110003CBF41F8040BFAE71D49194A91423CBF24
:1001200041F8040BFAE71B491B4A1C4B9A423EBF9D
:1001300051F8040B42F8040BF8E700201849194A5B
:1001400091423CBF41F8040BFAE707F073F907F05E
:100150006EF9154C154DAC4203DA54F8041B884770
:10016000F9E702F0DDFC124C124DAC4203DA54F810
:10017000041B8847F9E707F05BB900000004002082
:10018000000C00200000000808ED00E00000002046
:1001900000040020C09E0008000C00202412002053
:1001A00028120020602B0020E0000008E00000087A
:1001B000E0000008E000000892E700F000F8FEE729
:1001C0002DE9F04FC1F80CD0C3689D46BDE8F08F13
:1001D000002383F311882846A047002007F00AFB7C
:1001E000FEE707F061FA00DFFEE7000080F0004064
:1001F00002E000BF81F0004142001FBF5FEA4103FF
:1002000092EA030F7FEA226C7FEA236C6AD04FEAFE
:100210001262D2EB1363C1BFD21841404840414043
:10022000B8BF5B42192B88BF704710F0004F40F4F5
:10023000000020F07F4018BF404211F0004F41F411
:10024000000121F07F4118BF494292EA030F3FD0DD
:10025000A2F1010241FA03FC10EB0C00C3F12003F0
:1002600001FA03F100F0004302D5494260EB40007F
:10027000B0F5000F13D3B0F1807F06D340084FEAEA
:10028000310102F10102FE2A51D2B1F1004F40EBDF
:10029000C25008BF20F0010040EA03007047490047
:1002A00040EB0000013A28BFB0F5000FEDD2B0FAE4
:1002B00080FCACF1080CB2EB0C0200FA0CF0AABF07
:1002C00000EBC25052421843BCBFD04018437047A5
:1002D00092F0000F81F4000106BF80F400000132AB
:1002E000013BB5E74FEA41037FEA226C18BF7FEA82
:1002F000236C21D092EA030F04D092F0000F08BFC4
:100300000846704790EA010F1CBF0020704712F0AA
:100310007F4F04D1400028BF40F00040704712F1E9
:1003200000723CBF00F50000704700F0004343F04E
:10033000FE4040F4000070477FEA226216BF084684
:100340007FEA23630146420206BF5FEA412390EA47
:10035000010F40F4800070474FF0000304E000BF3D
:1003600010F0004348BF40425FEA000C08BF7047EE
:1003700043F0964301464FF000001CE050EA0102B2
:1003800008BF70474FF000030AE000BF50EA0102C7
:1003900008BF704711F0004302D5404261EB4101B4
:1003A0005FEA010C02BF84460146002043F0B643D9
:1003B00008BFA3F18053A3F50003BCFA8CF2083AFE
:1003C000A3EBC25310DB01FA02FC634400FA02FC07
:1003D000C2F12002BCF1004F20FA02F243EB02000E
:1003E00008BF20F00100704702F1200201FA02FC70
:1003F000C2F1200250EA4C0021FA02F243EB020063
:1004000008BF20EADC7070474FF0FF0C1CEAD052A6
:100410001EBF1CEAD15392EA0C0F93EA0C0F6FD067
:100420001A4480EA010C400218BF5FEA41211ED045
:100430004FF0006343EA501043EA5111A0FB013131
:100440000CF00040B1F5000F3EBF490041EAD37106
:100450005B0040EA010062F17F02FD2A1DD8B3F182
:10046000004F40EBC25008BF20F00100704790F0F1
:10047000000F0CF0004C08BF49024CEA502040EA43
:1004800051207F3AC2BFD2F1FF0340EAC250704709
:1004900040F400004FF00003013A5DDC12F1190F47
:1004A000DCBF00F000407047C2F10002410021FAB9
:1004B00002F1C2F1200200FA02FC5FEA310040F1D1
:1004C000000053EA4C0308BF20EADC70704792F04A
:1004D000000F00F0004C02BF400010F4000F013A82
:1004E000F9D040EA0C0093F0000F01F0004C02BF7D
:1004F000490011F4000F013BF9D041EA0C018FE7EC
:100500000CEAD15392EA0C0F18BF93EA0C0F0AD0F1
:1005100030F0004C18BF31F0004CD8D180EA010017
:1005200000F00040704790F0000F17BF90F0004FB0
:10053000084691F0000F91F0004F14D092EA0C0F92
:1005400001D142020FD193EA0C0F03D14B0218BF25
:10055000084608D180EA010000F0004040F0FE406B
:1005600040F40000704740F0FE4040F44000704707
:100570004FF0FF0C1CEAD0521EBF1CEAD15392EA86
:100580000C0F93EA0C0F69D0A2EB030280EA010C76
:1005900049024FEA402037D04FF0805343EA11110F
:1005A00043EA10130CF000408B4238BF5B0042F16D
:1005B0007D024FF4000C8B4224BF5B1A40EA0C0012
:1005C000B3EB510F24BFA3EB510340EA5C00B3EB44
:1005D000910F24BFA3EB910340EA9C00B3EBD10F32
:1005E00024BFA3EBD10340EADC001B0118BF5FEA84
:1005F0001C1CE0D1FD2A3FF650AF8B4240EBC250AD
:1006000008BF20F0010070470CF0004C4CEA50206D
:100610007F32C2BFD2F1FF0340EAC250704740F4BC
:1006200000004FF00003013A37E792F0000F00F0AE
:10063000004C02BF400010F4000F013AF9D040EA2C
:100640000C0093F0000F01F0004C02BF490011F4C0
:10065000000F013BF9D041EA0C0195E70CEAD153B8
:1006600092EA0C0F08D142027FF47DAF93EA0C0F9F
:100670007FF470AF084676E793EA0C0F04D14B0283
:100680003FF44CAF08466EE730F0004C18BF31F035
:10069000004CCAD130F000427FF45CAF31F000432F
:1006A0007FF43CAF5FE700BF42000ED2B2F1FE4FD5
:1006B0000BD34FF09E03B3EB126209D44FEA002331
:1006C00043F0004323FA02F070474FF000007047F8
:1006D00012F1610F01D1420202D14FF0FF30704799
:1006E0004FF00000704700BF53B94AB9002908BF56
:1006F00000281CBF4FF0FF314FF0FF3000F06CB905
:10070000ADF1080C6DE904CE00F006F8DDF804E068
:10071000DDE9022304B070472DE9F047089D0C463F
:10072000002B4ED196468E458446B2FA82F262D9AB
:100730004AB1C2F12003914020FA03F30EFA02FEFF
:10074000194300FA02FC4FEA1E47B1FBF7F407FB1E
:1007500014111FFA8EF64FEA1C4343EA014304FBCF
:1007600006F199420AD91EEB030304F1FF3080F031
:100770001181994240F20E81023C7344591AB1FB37
:10078000F7F007FB101100FB06F61FFA8CF343EAA3
:1007900001439E420AD91EEB030300F1FF3180F0B2
:1007A000FB809E4240F2F8807344023800219B1B7C
:1007B00040EA04401DB1D3400022C5E90032BDE843
:1007C000F0878B4205D90DB1C5E90001002108462B
:1007D000F5E7B3FA83F1002946D1A34202D3904250
:1007E000C0F0F380861A64EB03030120002DE6D0ED
:1007F000C5E90063E3E7002A40F09080A1EB0E0416
:1008000001214FEA1E471FFA8EF6B4FBF7F007FBF3
:1008100010444FEA1C4343EA044306FB00F49C42A5
:1008200008D91EEB030300F1FF3802D29C4200F20C
:10083000C98040461C1B1FFA8CF3B4FBF7FC07FB76
:100840001C4406FB0CF643EA04439E4208D91EEB07
:1008500003030CF1FF3402D29E4200F2AF80A446A3
:100860009B1B4CEA0040A5E7C1F120068B4022FA11
:1008700006FC4CEA030C24FA06F74FEA1C49B7FBC6
:10088000F9F81FFA8CFE09FB187720FA06F38C4062
:1008900000FA01FA08FB0EF01C43230C43EA07435D
:1008A000984202FA01F20AD91CEB030308F1FF3760
:1008B00080F0828098427FD9A8F1020863441F1A11
:1008C000B7FBF9F309FB137703FB0EFEA4B244EA6E
:1008D0000744A64508D91CEB040403F1FF3067D296
:1008E000A64565D9023B644443EA0840A0FB028365
:1008F000A4EB0E049C42C6461F4651D34ED0002D99
:1009000067D0BAEB0E0364EB070424FA01F2CB4084
:10091000B4401C430021C5E9004250E70EFA02FE34
:10092000C2F12003D9404FEA1E4720FA03F300FA30
:1009300002FCB1FBF7F007FB101194401C431FFAB7
:100940008EF6230C43EA014300FB06F1994208D9D5
:100950001EEB030300F1FF382CD299422AD902384A
:1009600073445B1AB3FBF7F107FB1133A4B244EAFB
:10097000034401FB06F3A34208D91EEB040401F172
:10098000FF3813D2A34211D902397444E41A41EA60
:1009900000413AE70446F1E6084607E7C245AED211
:1009A000B8EB020E63EB0C070138A8E74146EDE710
:1009B000034699E74046D4E7B84680E77344ACF174
:1009C000020C4DE70238734434E7064623460846D6
:1009D0000CE72946F3E600BF704700BF70B58607F5
:1009E00047D0541E002A3ED00346CAB201E0013C63
:1009F00039D303F8012B9D07F9D1032C2CD9CDB2A3
:100A000005EB05250F2C1A4605EB054534D9A4F155
:100A1000100C2CF00F0603F1100EB6444FEA1C1C0C
:100A2000C2E90055C2E9025510327245F8D10CF105
:100A3000010214F00C0F03EB021204F00F0C13D0A0
:100A4000ACF1040323F003030433134442F8045BC2
:100A50009342FBD10CF003042CB1C9B21C4403F83F
:100A6000011BA342FBD170BD64461346002CF4D198
:100A7000F9E703461446C0E7A446E1E7032A30B489
:100A800015D941EA0004A40784460B4604D0541E3D
:100A90000FE0043A032A08D91946604653F8044B7C
:100AA0005CF8045BA542F4D0F1E760461946541E99
:100AB0007AB1431E0139021901E09A4209D013F8B4
:100AC000010F11F801CF6045F7D0A0EB0C0030BC4E
:100AD0007047002030BC7047844641EA000313F0A1
:100AE000030349D1403A23D30B6803604B6843604A
:100AF0008B688360CB68C3600B6903614B6943619A
:100B00008B698361CB69C3610B6A03624B6A436281
:100B10008B6A8362CB6AC3620B6B03634B6B436369
:100B20008B6B8363CB6BC36340304031403ADBD285
:100B300030320BD30B6803604B6843608B68836073
:100B4000CB68C36010301031103AF3D20C3205D3A9
:100B500051F8043B40F8043B043AF9D2043208D07F
:100B6000D2071CBF11F8013B00F8013B01D30B88F1
:100B700003806046704700BF082A13D38B07B1D0AB
:100B800010F00303AED0C3F10403D21ADB071CBF7D
:100B900011F8013B00F8013BA4D331F8023B20F8E7
:100BA000023B9FE7043AD9D3013A11F8013B00F820
:100BB000013BF9D20B7803704B7843708B788370CC
:100BC0006046704738B505460C4600F04FF8C8B18E
:100BD00047F620039D4216D163795BB103F024FDF3
:100BE000FF2811D1002003F025FD002211461046F8
:100BF00002F05EFE03F0FCFB20B9FF2003F01AFDBB
:100C000003F0D6FB002038BDFF2003F013FDF1E711
:100C100070B506460D4600F091F8044698B105F00F
:100C200033F9810711D51D2E0FD81D2D0BD9502357
:100C30001D201A46194602F029FE0B4B1B78DA06D6
:100C400001D53A2D08D8204670BD074B1B78DB062E
:100C5000F9D53A2EF7D8F4E750233A201A46194628
:100C600002F014FEEFE700BFC629002047F20B0395
:100C7000984210B50C4607D047F60343984203D07C
:100C80002A280DD0012010BD0C4B188063790C4C24
:100C900023B105F08DFB20800020F4E72380FBE7E3
:100CA00001F016F910F0AA0FECD063794C2013B1C3
:100CB00000F02CFAF0E700F0A7FAEDE7C4290020D5
:100CC0003412002010B5174C208848B305F0E8FA1C
:100CD00040F2DB53984223D9002347F20B022380D2
:100CE000114B1B88934212D047F60342934217D10F
:100CF0000E4B1A78A2B901241C7005F023FB0C4B93
:100D000018600C4B1C60BDE8104003F03FBB0A4963
:100D10000B78C3F3001282F0010262F304130B702C
:100D200010BD00BF34120020C4290020281200206A
:100D30002C12002030120020C6290020F8B5174ED2
:100D400033784BB3164F174C386805F0B0FAFA22D7
:100D500023685A43904224BF0133236023680A2B3F
:100D60000FD900253D602560357001F077FA02F05B
:100D70005BFD0D4B1A7865F304121A70188801F0A8
:100D80000FFA226812F0010218BF642210461146C1
:100D900002F08EFD0020F8BD0120FCE728120020A3
:100DA0002C12002030120020C629002003280CD865
:100DB00004290AD80F2A08D800EB80000144044B0C
:100DC00002EB011233F8120070470120704700BF98
:100DD000BE960008032808D839B9054B82F00102F5
:100DE00002EB400033F8100070470120704700BF4D
:100DF000AE960008012070470120704708B5FFF744
:100E0000FBFF08BD01207047012070477047704705
:100E100008B5FFF7FCFF08BD012070477047704719
:100E200013B502AB03E903000F4B1B78B3B99DF870
:100E3000053073B16AB100F0B9FD0446014600986F
:100E400000F07AFD2046009902B0BDE8104001F0A4
:100E50000DBC009800F08EFD0446F3E7009800F00A
:100E6000A5FD0099F0E700BF3C120020034610B436
:100E700000885C880A4640EA0440998810BCFFF765
:100E8000CFBF10B504460121FFF7F0FF2146FFF761
:100E9000B1FF30B101212046FFF7E8FF2146FFF7FF
:100EA000ADFF00F0010010BD38B500210446FFF78A
:100EB000DDFF05462146FFF7A9FF21462846FFF73B
:100EC000A7FF38BD012303FA00F0C0B200F09BBCBD
:100ED00010B504460120A040C0B201F05AF92046E6
:100EE000BDE81040FFF7EEBF0120704708B5FFF7DF
:100EF000FBFF08BD10B5044600F036FC2046FFF7A6
:100F00008BFF2046FFF7F2FFBDE8104046F2A81025
:100F100006F075BC08B50120FFF7ECFFBDE80840FE
:100F200005F05EBA08B50020FFF7E4FFBDE8084011
:100F300005F07CBA38B501210546FFF797FF294631
:100F40000446FFF761FF002852D029462046FFF7EC
:100F500039FE00284CD02946204604F027FE002800
:100F600046D02946204604F033FD002840D02946CB
:100F7000204604F019F8D8B32946204603F0EEFFC6
:100F8000B0B32946204602F04FF988B329462046DF
:100F900002F092F960B32946204604F067FD38B3A9
:100FA0002946204601F074FC10B36B797BB147F6FB
:100FB0005A439C4223D00ED847F601439C421BD093
:100FC00047F603439C4215D0B4F5F84F0ED028469F
:100FD000FFF718FF0DE047F65B439C4212D047F63F
:100FE0005C439C42F3D101F0A3F8F0E7FFF792FFD6
:100FF000002038BD01F0AEF8FFF794FFF8E701F0EC
:10100000A3F8E4E701F0A3F8E1E708B5FFF706FF6E
:1010100005F02BF903F0CCF800F024F8BDE8084007
:10102000012003F07DB908B500F021F8002003F09D
:1010300077F9FFF7F4FEBDE8084005F01BB9012081
:101040007047704738B50546FFF7F9FF044610B101
:101050002846FFF7F6FF204638BD704708B5FFF772
:10106000F1FF08BD08B50020FFF7F8FF08BD08B57F
:1010700004F002FFFFF7F2FF08BD000010B504F016
:10108000FBFE074B04461A78824207D0187005F021
:1010900059F9044B18602046FFF7E0FF10BD00BF70
:1010A00036120020381200201FB56C4684E8030079
:1010B0009DF805300BB100F037FF0023ADF80E307E
:1010C00094E80300ADF80C10C9B2029002AC29B943
:1010D00094E8030000F082FE04B010BD2046FFF744
:1010E000D0FE0028F4D1F7E70379012B02D1008864
:1010F00000F07CBC704708B529B104F0B9F8BDE830
:10110000084004F093B904F005F9F8E710B5044677
:10111000002875D0822813D104F0B6FE81076FD461
:10112000392004F09DFF00F097FF4FF4FA5006F0CD
:1011300066FB392004F0B2FFBDE8104000F08CBF20
:1011400083280ED104F0A0FEC20759D4532004F026
:1011500087FF00F081FF42F2107006F050FB532031
:10116000E8E784280ED104F08FFE430748D44720D7
:1011700004F076FF00F070FF42F2107006F03FFBC3
:101180004720D7E7031FDBB2A02B0BD804F0FAFEF1
:1011900020B1204604F082FF00F05EFF204604F0FC
:1011A0005FFFC9E700F12003DBB2072B07D800F08F
:1011B00007040120A040C0B200F090FEBCE700F19F
:1011C0005B03DBB2022B05D8BDE81040243880B2A7
:1011D00004F07ABE00F15803DBB21A2B06D8BDE842
:1011E0001040084A32F8130004F08ABE3334E4B2E7
:1011F000122C05D804F03CF8BDE8104004F016B9F4
:1012000010BD00BF3E99000808B5034600285AD01B
:1012100082280FD104F038FE810754D5392004F01C
:101220001FFF00F019FF392004F038FFBDE8084027
:1012300000F012BF83280AD104F026FEC20742D56F
:10124000532004F00DFF00F007FF5320ECE7842843
:101250000AD104F019FE430735D5472004F000FFFA
:1012600000F0FAFE4720DFE7021FD2B2A02ADBD946
:1012700000F12002D2B2072A07D800F007030120AC
:101280009840C0B200F032FED0E700F15B02D2B26B
:10129000022A04D8BDE80840002004F015BE00F181
:1012A0005802D2B21A2A04D8BDE80840002004F03F
:1012B00027BE3333DBB2122B05D804F02BF8BDE880
:1012C000084004F0B3B808BD38B50C460546FFF732
:1012D0001DFF94B140F2E73309494FF47A72A4FB41
:1012E0000141E01841F100010023FFF7FDF906F08C
:1012F00086FA2846FFF788FF38BD0120F7E700BFD0
:10130000A086010008B539280CBF50210021FFF745
:10131000DBFF08BD08B528B100F0E0FDBDE80840DE
:1013200000F09ABE08BD08B528B100F0DFFDBDE8A9
:10133000084000F091BE08BD2DE9F8438779814649
:101340000C46457900F0BAFD3F09064608B32E4623
:10135000FDB1C4F3072303F0F002402A0CD0E1B240
:1013600001F12002D2B2072A25D903F0E003202B95
:1013700002D101291FD907B3A54B5E7816F00406E8
:1013800007D0022000F0A4FE00F098FD80F00106D6
:10139000F6B2C4F303330B2B3DD8DFE813F0100093
:1013A000100054005400AE00C5003C003C00CA00D0
:1013B0002D01420142010026EBE73E46E9E7C4F376
:1013C0000723C4F303270F2B88BF3F01E4B285B185
:1013D00057B104F12003DBB2072B384600D92CB9F2
:1013E00000F07CFD00F038FE20464CE000F08CFD63
:1013F000F8E72046FFF708FF6FB104F12003DBB2E6
:10140000072B384600D914B900F070FD01E000F058
:1014100083FD00F021FE002E00F0598100F046FD12
:1014200010F0010040F0538189F8050000F038FD0C
:1014300000F01CFA484600F061F900F031FDBDE80B
:10144000F84300F01DBAC4F3072303F0F003C4F31C
:101450000328202BE4B218BF4FEA08182CB1012C46
:1014600034D0002D3CD0DFB1BEE7694B5B78590723
:1014700014D45DB1B8F1000F04D0404600F02EFD49
:1014800000F0EAFD0020FFF741FEC4E72846FFF721
:10149000BBFEB8F1000FBED04046B5E755B11FB94D
:1014A0004046FFF737FFB6E7012FB4D1404600F0C2
:1014B0005BFDB0E7002FAED14046FFF734FF40465A
:1014C00000F060FD404600F03BFDA4E715B1052F9C
:1014D000A1D8E5E7042F9ED84046FFF724FF9AE7FE
:1014E000002FF9D0392C0CBF4FF4FA50012006F030
:1014F00086F92046FFF788FE8DE714F4406FC4F3A9
:10150000812307D0012B86D165B1C4F3090004F013
:10151000F7FC80E725B1C4F3090004F0D5FC7AE7B5
:101520002846FAE72846F2E72946E0B2FFF7E3FD4E
:1015300071E714F4407F2ED1F5B914F0100018BFF4
:101540000F20C4F342134FEA8303DBB21CBF984061
:10155000C04304F00F0202FA03F2C4F3812418BF5F
:10156000C0B2D2B2022C40EA02000ED0032C0FD03F
:10157000012C07D000F052F904F07EFCBDE8F843DE
:10158000FFF76CBD00F042F9F6E700F04FF9F3E722
:1015900000F039F9F0E7C4F301220DB3D207EBD51F
:1015A00014F0100018BF0F20C4F342134FEA830356
:1015B000DBB21CBF9840C04304F00F0202FA03F2F2
:1015C000C4F3812418BFC0B2D2B2022C40EA020098
:1015D0000CD0032C0DD0012C05D000F06DF9CBE719
:1015E000012AC9D9DCE700F05FF9C5E700F06CF922
:1015F000C2E700F029F9BFE7E6B2C4F303244DB116
:10160000204600F033F93046FFF784FEB4E700BF10
:10161000C62900203046FFF786FE204600F030F94C
:10162000AAE7E6B2A6F1F003042B38D8DFE803F00E
:1016300003210D141D0035B1042F9DD8C4F30420DF
:1016400000F028F998E7052FF7E7C4F30420002DF0
:10165000E4D100F00BF98FE725B1C4F3042000F0CA
:10166000FEF889E700F0F8F886E71A4B5B785B072D
:1016700004D4C4F30420002DD0D0EAE72DB1032117
:10168000C4F3042000F002FD76E7012000F020FD05
:10169000012F7FF671AF022000F01AFD6CE73DB11B
:1016A0001FB13046FFF732FD66E7C4F30420D0E7F0
:1016B00057B1392E0CBF4FF4FA50012006F09FF8B5
:1016C0003046FFF7A1FD57E7C4F30420A6E7BDE8C5
:1016D000F88300BFC629002038B501880446407948
:1016E00000F090F9054600F0F7F800F08BF8294675
:1016F0002046BDE83840FFF71FBE0000037910B553
:101700000446B3B1FFF716FC68B900F0D7FB80B10F
:10171000637973B1074B5B785B070AD5BDE810406E
:10172000022000F0D5BC2046FFF7D6FF2046FFF789
:10173000BBFB10BDC629002008B5002004F0C4FB87
:10174000002004F0DDFB00F0EFFB00F085FC03F06F
:1017500089FEBDE8084003F069BE08B504F0BCFC92
:10176000BDE80840FFF7E8BF08B500F0C7FBBDE8DB
:101770000840FFF7F2BFC0F30333062BC2B213D009
:1017800094BF0E33063303F00F03012B10D8F02A59
:1017900010D004D8E72A8CBF002001207047F42A1B
:1017A00014BF002001207047E72A03D9F12AF7E788
:1017B000002070470120704708B50346007930B11A
:1017C000188800F013F9BDE80840FFF7D4BF08BD42
:1017D00082B002AB03E9030002B0704782B002ABF3
:1017E00003E9030002B07047704708B5FFF7FCFF3C
:1017F00008BD000008B5FFF7F8FF014B187008BDE1
:101800005F1200207047FFF7F5BF0000024B1B7806
:101810001843FFF7EFBF00BF5F120020024B1B7899
:101820001840FFF7E7BF00BF5F120020024B1B7894
:101830005840FFF7DFBF00BF5F120020704708B5B8
:10184000FFF7FCFF08BD000008B5FFF7F8FF014BEC
:10185000187008BD5E1200200020FFF7F5BF0123BD
:1018600003FA00F0C0B2FFF7EFBF00000123034A04
:10187000834010781843C0B2FFF7E6BF5E12002025
:101880000123034A8340107820EA0300FFF7DCBFFE
:101890005E1200200123034A834010785840C0B2F2
:1018A000FFF7D2BF5E120020024B1B781843FFF7F0
:1018B000CBBF00BF5E120020024B1B781840FFF721
:1018C000C3BF00BF5E120020024B1B785840FFF7D9
:1018D000BBBF00BF5E120020704701F00703C908BC
:1018E00030B501EB4101012401390A4400219C403B
:1018F000E4B212F8015F20FA01F343F300036B40F6
:10190000234001315D4003291570F2D130BD002222
:1019100010B500F00704C00800EB40000144104679
:101920008B5CE34003F00103934001321843032A28
:10193000C0B2F5D110BD000017B40C46C1B2C0F35F
:101940000720042809D80F290DD8084A01EB0011F7
:10195000204603B010BCFFF7C0BF031DDBB2012B54
:1019600001D8034AF4E703B010BC704740120020CE
:101970003D120020C3B2C0F30720042882B007D86C
:101980000F2B0CD8074903EB001002B0FFF7BFBFC5
:101990000430C0B2012802D818460349F5E70020F8
:1019A00002B07047401200203D12002073B503249E
:1019B0000C4BADF804001E780B4B1B781E4346FA07
:1019C00004F3DB0705D4013CF9D20025284602B018
:1019D00070BDE5B22846019900F065FE80B201288D
:1019E000F1D0F3E75E1200205F12002007B5ADF8DA
:1019F00004000198FFF7DAFF019903B05DF804EBEA
:101A000000F051BE13B5104BADF804101B782BB18C
:101A1000019802B0BDE81040FFF7E8BF70B101982F
:101A2000FFF7C4FF044601460198FFF785FF2046F3
:101A3000019902B0BDE8104000F035BE0198FFF7F3
:101A400099FF0446F3E700BF3C12002010B50124C3
:101A500004FA02F204FA01F11143CAB201409142C0
:101A600004FA03F406BF2043C0B2A04310BD000037
:101A700008B513460A46014603480078FFF7E6FF1B
:101A8000BDE80840FFF7E0BE5E120020F8B50C4B41
:101A90000C4E1C780C4D3378A34200D1F8BD05EBF9
:101AA000C40335F834005F889A88D98840EA074033
:101AB00042EA01410134FFF791FE04F00704EAE72E
:101AC000601200206112002062120020064B10B448
:101AD00018885C889A88D98840EA044042EA014123
:101AE00010BCFFF77BBE00BFA2120020194AF8B558
:101AF00093790F2B0AD8537943B1174B17491B78A9
:101B00000D7816885788164CAB4200D1F8BD04EB0F
:101B1000C3010879D0B134F83300B04216D1487906
:101B2000A0B94888C01B80B2C7280FD8012093797C
:101B300060F3071393718B7960F3071305488B717A
:101B4000FFF7DCFDBDE8F840FFF7A0BF013303F06D
:101B50000703D9E7A21200206012002061120020C2
:101B600062120020F0B50D4B0D4C1B7826780D4C01
:101B7000B34201D10020F0BD04EBC3056F788F4262
:101B800006D114F83370874202D16D79954203D1A2
:101B9000013303F00703EBE70120ECE760120020BC
:101BA00061120020621200202DE9FF47E946044639
:101BB000894D014606224846FEF78EFF2B7994F8A0
:101BC000008061786779B4F802A02279C3B9002A4D
:101BD00000F0C780002F00F0F6802046FFF7ECFDF4
:101BE000002800F0F080082221462846FEF774FF06
:101BF0002846FFF779FAFFF779FFFFF767FFB0E0B4
:101C00006B886E79AAEB03039BB2002E00F0AB80C9
:101C1000C72B00F28480002A00F0A380AB792888CB
:101C20000F2B22884ED8904211D1002F45D101228E
:101C300062F30713AB71FFF749FF2846FFF75EFD1C
:101C4000AB79A3710025284604B0BDE8F087A7BB97
:101C50003A464046FFF786FF4046FFF783FF0546BA
:101C60000028EFD10098FFF7C1FEC0F30332032A2A
:101C7000C3B208D8012A10D910F4706F12D0A2791B
:101C80000F2A0FD8DFE7063202F00F02012A0ED921
:101C90002046FFF733FD3546D5E710F4706F01D0CD
:101CA000002BD0D02033DBB2072BCCD9F0E7EF2BC1
:101CB000C9D90F33DBB2022BF7E7AB7943F001034D
:101CC000AB71BFE790420AD14FB92046A371FFF72D
:101CD00015FD082221462846FEF7FEFE8DE7204628
:101CE000FFF76AFD00286ED0002F6CD0AB791F2B58
:101CF0000FD92A8802A8ADF808202A79ADF80AA0E1
:101D00008DF80C2000228DF80E308DF80D20FFF795
:101D1000F5FC082221463048FEF7DEFE6BE7AB7982
:101D20000F2B0ED899E80300FFF752FD2846FFF766
:101D3000E5FC082200212846FEF750FEFFF7C6FE0C
:101D400080E772B1298822889142C8D1002FC6D17C
:101D50002046A371FFF7D2FC082239462846FEF739
:101D60003DFE01256FE7C72B31D8002AF9D057B3C4
:101D70002A8823889A421DD1AB79DA0714D40F2B15
:101D800012D9A37103F0F003F02B06D0A379C3F3AB
:101D90000312013262F30713A3712046FFF7AEFC72
:101DA000082221460C4897E7082221460A48FEF7F8
:101DB00093FED6E72046FFF7FFFC0028A9D1AB79B8
:101DC00043F00103AB712046FFF798FCC9E799E89F
:101DD0000300FFF7FDFCACE7A2120020F0B585B0D0
:101DE0006C4684E803002046FFF7DEFE284F0646D7
:101DF000284D68B19DF804301BB194E80300FFF74B
:101E0000EDFC254C28783B78834226D105B0F0BD07
:101E100002AB94E8030083E803009DF804103878CF
:101E20002A780029EDD0441C04F0070494420AD01B
:101E30001946194B082203EBC000FEF74DFE3C701B
:101E4000FFF724FEDDE7FFF78FFC08223146134839
:101E50003E702E70FEF7C2FDD3E704EBC000FFF723
:101E6000A3FE0028D2D02B7834F8330004EBC30350
:101E70005E889A88D98840EA064042EA0141FFF725
:101E8000ADFC2B78013303F007032B70BAE700BFDA
:101E9000611200206012002062120020A2120020B5
:101EA000014B1878C0087047D2120020024B1878F6
:101EB00000F00700704700BFD2120020034B1878D3
:101EC00010F0070018BF0120704700BFD212002099
:101ED000014B1878704700BFFE120020024B1A78A1
:101EE00010431870704700BFFE120020024A13789A
:101EF00023EA000313707047FE1200200022014BFA
:101F00001A707047FE120020024B1A7810431870A6
:101F1000704700BFFD120020024A137823EA000335
:101F200013707047FD1200200022014B1A70704799
:101F3000FD120020704708B5FFF7FCFF08BD000048
:101F400008B5054A1378034204D023EA0000107054
:101F5000FFF7F1FF08BD00BFD3120020704708B59E
:101F6000FFF7FCFF08BD000010B505490B7830EA0B
:101F7000030403D003430B70FFF7F1FF10BD00BF54
:101F8000D412002008B5054A1378034204D023EA8E
:101F900000001070FFF7E3FF08BD00BFD41200205F
:101FA00008B5044B1A781AB100201870FFF7D7FF54
:101FB00008BD00BFD412002038B5084B1C78084B70
:101FC0001B781C43074B1D782DB103F0B5FF08B1FA
:101FD000FFF7E6FF2C43204638BD00BFFE1200206D
:101FE000FD120020D412002038B50B4C2568FFF7F5
:101FF000E3FF28702468082220460849FEF73EFDCA
:1020000048B1214608220548FEF766FD2046BDE896
:10201000384003F03DBF38BD200D0020CA1200201B
:1020200038B50B4C2568FFF7C7FF6870246820227D
:1020300020460849FEF722FD48B1214620220548E6
:10204000FEF74AFD2046BDE8384003F029BF38BD01
:102050001C0D0020AA12002008B504F0D7F80128B2
:1020600008D1064B93F90030002B03DABDE8084095
:10207000FFF7D6BFBDE80840FFF7B6BFC62900206E
:10208000704708B5FFF7FCFF08BD0000094A10B50E
:10209000527852070AD5084C41EAC0012170FFF777
:1020A000E5FB2078C008FFF7ECFF10BDBDE810404D
:1020B000FFF7DCBBC6290020D2120020002008B5A3
:1020C000024B1870FFF7DDFF08BD00BFD2120020E1
:1020D00008B50A4A137823EA0000107042070CD1B1
:1020E00098420AD0064B5B785B0706D5C008FFF71D
:1020F000C7FBBDE80840FFF7E1BF08BDD2120020D2
:10210000C6290020094A08B55378C3F380018142EB
:102110000AD060F382035370108800F041F8BDE8E4
:1021200008400220FFF7D4BF08BD00BFC629002029
:10213000044B5878C0F3800080F0010000F00100EB
:10214000FFF7E0BFC62900200120FFF7DBBF00201A
:10215000FFF7D8BF08B5002000F08EFDBDE80840AD
:102160004FF6FF71002000F069BD08B5002000F0B7
:10217000FEFC4FF6E563984203D1BDE8084003F04A
:10218000B5BC002008BD022000F0E2BC032000F036
:10219000DFBC0146032000F043BD042000F0E7BC93
:1021A0000146042000F04ABD01460F2000F054BD56
:1021B0000146132000F050BD0020FFF7F9BF08B51D
:1021C0000020FFF7F1FFFFF7F7FF08BD07B500207C
:1021D00000F052FD4FF6E561002000F02FFD0021D8
:1021E000022000F01DFD01201B4B1870FFF7D1FFEE
:1021F0004FF4A051042000F021FD0021062000F042
:102200000FFD0021072000F00BFD0021082000F049
:1022100023FD0021232000F003FD00210C2000F00D
:10222000FFFC00210D2000F0FBFC0023002268468B
:10223000CDE900231721082200F0D8FC00211F203F
:1022400000F00AFD002003F065FC03F08EFCFFF7B0
:10225000B6FF03B05DF804FB5F120020FFF7B6BFC6
:1022600001460E2000F0DCBC73B504F0A1F80B4D64
:1022700004462B8883420ED00026ADF8006004F09F
:1022800097F8ADF80460ADF8020002AB13E9030063
:10229000FEF70AFF2C8002B070BD00BF00130020C3
:1022A00008B504F04FF8024B1860024B186008BDE7
:1022B000141300201013002008B504F043F8024B5B
:1022C0001860024B186008BD141300200C13002086
:1022D0007047704708B5FFF7FCFF08BD704708B5A9
:1022E000FFF7FCFFFFF7F6FF08BD704708B5FFF7E3
:1022F000FCFF08BD704708B5FFF7FCFFFFF7F6FFCE
:1023000008BD01207047000008B5054800F0D2FA6A
:1023100000F0B0FCFFF7DCFFBDE80840FFF7DFBFCF
:102320008D2800080120704708B5FFF7FBFF08BDA6
:102330007047704708B5FFF7FBFFFFF7FAFFFEF79E
:10234000C1FC08BD08B5FFF710FF08B9FFF786FF0D
:10235000FFF719FF084B1870FFF71FFF074B188096
:1023600002F0B0FCFFF712FFFFF74DFA044B1878AC
:10237000BDE80840FFF763BA18130020C629002003
:102380005E12002008B503F0DBFF03F0FEFB02F055
:1023900011FB00F041FBFFF7D5FFFEF75EFE01F0F9
:1023A00099FF064B1A7842F080021A701888FFF7DE
:1023B000F7FEBDE80840FFF79EBF00BFC62900201A
:1023C0002DE9F04F85B0FFF79CFF78B9FFF74CFF80
:1023D00001F0EEFE02F044FB08B1FFF76DFF03F0E1
:1023E00069F805B0BDE8F04FFEF748BEDFF8C080E1
:1023F00000F02CFB46460024E0B236F8025B00F009
:1024000069FA042C50D0854204F10104F4D0294B20
:102410001B789B0701D500F063FAFFF785FF0027C3
:1024200001905FFA87F9484600F054FA38F8026BD9
:102430000546B04232D000244FF0010A4640B6B201
:1024400016EA0A0F20D0019B15EA0A0F14BF4FF0BD
:10245000010B4FF0000B93B18DF808408DF80990F7
:1024600003F0A6FF4FF00103ADF80A008DF80C3021
:102470008DF80DB002AB93E80300FEF715FE5A4647
:102480002146484601F01AFA0134E4B24FEA4A0301
:10249000102C1FFA83FAD3D128F8025C0137052FDC
:1024A000BFD1FFF7FDFE93E78542B0D18EE700BFB5
:1024B000021300201813002038B500F0FFF8B0F523
:1024C000A44F044643D2B0F5A04F80F0AD80DF2882
:1024D00016D8CC2800F28B80A7280AD8A42879D84F
:1024E000012804D0031F9BB2A12B28BF0024204643
:1024F00038BDA0F1A8039BB21A2B70D90024F6E7CF
:10250000B0F5804F19D2B0F5005F80F09C80E728CD
:10251000EDD9A0F580739BB2B3F5F85FEED2C0F3AE
:10252000072000F051F90546E0B200F0C7F82D028F
:1025300005F4F85540EA050407E0C0B200F0BEF823
:1025400004F47064044344F42044A4B2CFE7B0F52B
:10255000A54F22D245F25F23984252D845F23F233D
:1025600098420BD9012300F00304C0F38202A34078
:1025700043EA421343F40C439CB2B8E745F21F23ED
:10258000984237D8012300F00304C0F38502A3402A
:1025900043EA421343F40D43EEE745F2BF2398426A
:1025A0000AD845F29F23984200F01F0034D84AF21F
:1025B000F40343EA00249AE7A0F5A543403B9BB20D
:1025C0001F2B9BD8040204F4F85444F4204444F034
:1025D000F0048CE7A0F1240444F48044B5E7224BD6
:1025E0005834E4B233F8144044F488447FE740F4AC
:1025F000A044AAE74AF2F10300F01F0443EA0424CE
:1026000075E7012300F00304C0F38202A34043EA0C
:10261000421343F40A43AFE700F0D6F8040204F48F
:10262000F85444F4005462E700F01F0000F0CCF8C6
:10263000C306C4F3431448BF0001240200B204439C
:1026400044F4104481E7C0F3042000F0BDF80546CF
:10265000E0B200F033F82D0205F4F855054345F4D7
:102660000055ACB243E700BF74990008CBB2C1F388
:102670000721042982B005D80F2B11D81A4602B0C1
:1026800002F0FDBBFD2905D153B90122194602B064
:1026900002F002BCFC2903D113B91A461946F6E729
:1026A000002002B0704707B5ADF804100199FFF79C
:1026B000DDFF03B05DF804EBFFF7FEBEE72850D85E
:1026C000DF2807D8312865D00ED8292858D02A28E5
:1026D00067D07047A0F1E003072B42D8DFE803F092
:1026E0001541242933413D42392804D0822802D0A3
:1026F000352840D07047334B1A7892075CD15B780D
:1027000013F0080F18BF292070472E4A1378D907F5
:102710004ED4527812F0010F23D013F0100F08BFDF
:10272000E32018BF00207047264B1B7813F0040FDE
:10273000F2E7244A137859073CD45278D2073BD4A5
:1027400013F0100FEDE71F4B5A78910709D51B784E
:1027500013F0100F08BFE720E3E71A4B1B781A07A6
:10276000F6D47047174A1378190727D4527891077F
:10277000E6D5E4207047134B1B7813F0200FC1E718
:10278000104B1A7892061BD45B7813F0080F18BF11
:10279000392070470B4B1B7813F0400F18BF2A20CD
:1027A0007047084B1B7813F0400F18BF312070475B
:1027B00039207047E2207047E0207047E6207047DC
:1027C0003520CEE7C629002010B52F4C21784B07C5
:1027D00013D500F01402A2F1040C00F01803DCF190
:1027E000000242EB0C02A3F1080CDCF1000343EB06
:1027F0000C039A4218BF80F00C000B0713D500F0B1
:102800001402A2F1140C00F01803DCF1000242EBF8
:102810000C02A3F1180CDCF1000343EB0C039A4209
:1028200018BF80F00C006478E30713D500F01102A4
:1028300002F1FF3C00F01803DCF1000242EB0C0255
:10284000A3F1080CDCF1000343EB0C039A4218BF20
:1028500080F00900A30711D500F0110200F0180361
:10286000A2F111046242A3F1180C6241DCF10003F1
:1028700043EB0C039A4218BF80F00900CB0648BF17
:1028800000F0E70010BD00BFC629002000207047FF
:10289000A0F5A543603B1F2B10B507D84C791CB998
:1028A00000F01F00FEF714FB204610BD0124FBE7DB
:1028B00000207047014B1860704700BF240D0020B6
:1028C000704708B5FFF7FCFF08BD704708B5FFF774
:1028D000FCFF08BD014B33F810007047D2290020DF
:1028E00070474FF4076004F003BE00BF00BF00BF95
:1028F00000BF00BF00BF00BF00BF00BF00BF00BFE0
:1029000000BF00BF00BF00BF00BF00BF00BF7047D7
:1029100008B5FFF7E6FF08BD08B5302383F311883B
:10292000012100F00F039940202220F00F0005F054
:10293000E2FE002383F3118808BD000038B510249F
:102940000B4D55F8040B421C01D0FFF7E5FF013C8D
:1029500014F0FF04F5D1074D55F8040B431C01D0CA
:10296000FFF7DAFF0134E4B2052CF5D138BD00BF22
:10297000AC990008EC9900082DE9F843DFF8908045
:10298000054658F821300E465C1C17463ED03022D2
:1029900082F31188012223F00F0903F00F0302FADA
:1029A00003F421464846240405F0A5FEC9F8184062
:1029B000002484F31188FFF798FF6FEA070EDFF811
:1029C00054C0A91E08355CF8042B31F8023F501C96
:1029D00019D022F00F00006902F00F0220FA02F273
:1029E000D20710D401243B438D420B80EBD158F821
:1029F0002600431C01D0FFF78FFF21463046BDE87B
:102A0000F843FFF785BF03EA0E03EDE7BDE8F8835F
:102A1000AC990008EC99000810B50A24FFF78EFF66
:102A2000224600210748FDF7D9FF2246002106482B
:102A3000FDF7D4FF052000F03BF8BDE81040FFF79C
:102A400040BF00BFD2290020C829002030B5002493
:102A5000012585B001940294ADF80C402A46E1B2FC
:102A600001A80134FFF788FF6D00102CADB2F5D13D
:102A70000A220D4801A9FEF701F8002814BF01241D
:102A8000002404D00A22084801A9FEF725F82346AD
:102A900005220649044800F00DF80446FFF716FF2A
:102AA000204605B030BD00BFC8290020D229002033
:102AB000704700002DE9F84307460E4615461C46B0
:102AC000DFF850804BB1012388F8003003F03AFC66
:102AD000114B18600020BDE8F88398F80090B9F118
:102AE000000FF7D00C4B186803F0E1FB0428F1D974
:102AF0006D002A4639463046FDF7C0FF28B12A4608
:102B000039463046FDF7E8FF4C460023204688F85A
:102B10000030E0E7201300201C130020FFF750BC1A
:102B200008B503F0D2FB04F013F8FFF7EDFB04F057
:102B300011F8FFF727FC04F023F804F027F8FFF75B
:102B4000EDFF04F045F803F0DDFFFFF7F3FBF4E7DA
:102B5000002307B5014601220DF107008DF807306B
:102B600000F08CF89DF8070003B05DF804FB00232B
:102B700007B5014602220DF10600ADF8063000F05F
:102B80007DF8BDF8060003B05DF804FB07B504222C
:102B9000002301460DEB0200019300F06FF801984D
:102BA00003B05DF804FB07B501228DF8071001465C
:102BB0000DF1070000F067F803B05DF804FB07B5FE
:102BC0000222ADF8061001460DF1060000F05BF898
:102BD00003B05DF804FB07B50422019101460DEB3B
:102BE000020000F050F803B05DF804FBF8B50546AC
:102BF0001446D31D23F0070300AFADEB030D684669
:102C00000E4600F03BF8224669462846FDF736FF9F
:102C100020B122463146284600F035F8BD46F8BDC1
:102C200038B50C460546FFF793FFA04205D0214674
:102C30002846BDE83840FFF7B6BF38BD38B50C466A
:102C40000546FFF794FFA04205D021462846BDE87F
:102C50003840FFF7B4BF38BD38B50C460546FFF71E
:102C600095FFA04205D021462846BDE83840FFF731
:102C7000B2BF38BD00F014B900F038B80B460146B9
:102C8000184600F04DB80B460146184600F09CB8B7
:102C900008B5064B4FF4805218460021FDF79EFE02
:102CA00041F2080200F580531A6008BD2813002085
:102CB00010B5054C23792BB900F06BF908B1012050
:102CC000207110BD0220FCE72823002010B5064C1F
:102CD000237933B100F067F910B10023012023718B
:102CE00010BD0220FCE700BF2823002038B5FFF705
:102CF000DFFF044618B9FFF7E9FF204638BD00F0B2
:102D00004AF90546FFF7C4FF012C06D1FFF7DEFFA5
:102D100000280CBF002505F001052C46EDE700005A
:102D200008B5034608469918B1F5805F05D80449EF
:102D30001944FDF7D1FE012008BD0020FCE700BFCB
:102D4000281300200000000038B500F024F90446E4
:102D500010B3FFF7ADFF4FF4007205461249002093
:102D600000F03EF9044678B10DA3D3E900234FF4F7
:102D700080510D4801F0E4FD02460B464FF48050AF
:102D800000F060F94400E4B2012D01D1FFF79EFF8D
:102D900041F20802054B1A60204638BDAFF30080AF
:102DA00025232284E49CF2CB281300202823002032
:102DB000044B1B68B3F5005F01D3FFF7C5BF0120CB
:102DC000704700BF282300202DE9F04F8318B3F58A
:102DD000805F04460E46154685B01DD82F4F00EB88
:102DE000070841463046FDF749FE002846D02A46EE
:102DF00031464046FDF770FEFFF75AFF834648B163
:102E00004FF000084FF0000907F580574DB9FFF764
:102E1000CFFF24E0FFF75AFF0023184605B0BDE8B6
:102E2000F08F052DAA4628BF4FF0050AC4F30243D0
:102E300043EACA03CDE9028952468DF8083031468B
:102E4000230A0DF10B008DF809308DF80A40FDF7CB
:102E500043FEDDE90223386800F0F4F808B90346C0
:102E600012E03B6808333B60FFF7A2FF01280346EE
:102E700006D1A5EB0A0554445644C7E70123CCE725
:102E800010F0FD0F18BF0023BBF1010FC5D1019356
:102E9000FFF71CFF0028BFD0019BBEE728130020CE
:102EA0007FB5FFF7F5FE00F06FF828B9FFF7F0FEE9
:102EB0000024204604B070BD4FF400720020304959
:102EC00000F073F82E4DA0B32BA3D3E900234FF4E9
:102ED0008051284601F034FD06460C464FF48050E0
:102EE00002A900F07AF8DDE902239C4208BF96426D
:102EF00001D0FFF7CDFE41F208046946204600F0FC
:102F00006CF888B3DDE9003253EA02012BD013F0EC
:102F1000C00FCDE9023204F10804D9B20CD0194B2C
:102F20001C60FFF711FF04460028C2D1FFF7B0FE76
:102F3000BFE7FFF7ADFEB9E703F47F40C3F30743F4
:102F400018430B0403F4E0231843CA0800EBD10133
:102F5000B1F5805FE3D80DF10B012844FDF7BCFD0E
:102F6000B4F5005FC9D10120064B1C600028D8D001
:102F7000FFF71EFFD7E700BF25232284E49CF2CB96
:102F8000281300202823002008B500F0DBF80120DA
:102F900008BD0120704708B5002000F0D5F8B0FA50
:102FA00080F0400908BD0120704738B5D5002A4699
:102FB0000C4600F0E6F818B921462544A94203D191
:102FC000B0FA80F0400938BDD1E90023D243DB4399
:102FD00041F8082B41F8043CF0E70122FFF7E5BF78
:102FE0002DE9F0470646894615460027C0B0202D3A
:102FF000AA4628BF4FF0200A4FEACA0809EBC701CA
:1030000042466846FDF768FD0024694654450DD1E7
:1030100042466946304600F0D2F888B92D1B464436
:103020002744E4D1012040B0BDE8F087D1E9002376
:10303000D243DB4341F8082B41F8043C0134E5E777
:103040000020F0E707B5CDE9002369460122FFF72C
:10305000C7FF03B05DF804FB0022082311460148B6
:1030600003F0E4BA0C08004008B5FFF7F5FF30B1F3
:10307000062003F0EBFA03F021FB002008BD4FF01F
:10308000FF30FBE7F7B51F464BBA090C064615465D
:103090008DF80400ADF806308DF80510FFF7DCFF61
:1030A000E8B104210DEB010003F0F4FA044648B93D
:1030B00045B1022E0BD0032E0ED12846B9B203F033
:1030C000F3FA044603F0FAFA204603B0F0BD2846AE
:1030D000B9B203F0DFFAF4E74FF0FF34F2E74FF054
:1030E000FF34F1E710B5FFF7B7FF88B1052003F013
:1030F000ADFA03F0BDFA044603F0E0FA002C05DB5C
:1031000014F0010F0CBF00246FF00304204610BD23
:103110004FF0FF34FAE710B5044603F013F94FF40B
:103120007A7303FB040403F00DF9A04204D2FFF705
:10313000D9FF031DF7D010BD6FF00100FBE70120A0
:10314000FFF7E9BF03F0F6B900F58033B3F5002FC0
:1031500010B5044612D283B283B9FFF7F0FF78B9F5
:10316000FFF782FF60B9034602462146D820FFF7E9
:1031700089FF28B9BDE81040FFF7E1BF4FF0FF30ED
:1031800010BD2DE9F04107460D461646FFF7D7FF63
:103190000446804638B1324600212846FDF71EFC21
:1031A0002046BDE8F08133462A4639460320FFF722
:1031B00069FF04460028F3D032464146EDE72DE989
:1031C000F04107468846164676B9FFF7B8FF044631
:1031D00038B9FFF741FF20B3042003F037FA03F0BA
:1031E0006DFA2046BDE8F081FDB2C5F58075B542A7
:1031F00028BF3546FFF7A3FF04460028F1D1FFF7AB
:1032000033FF04460028ECD12B46424639460220C3
:10321000FFF738FF04460028E3D1A8442F44761B6B
:10322000D2E74FF0FF34DCE74B7910B504460BB919
:10323000012010BDFEF74CFE00F02203A4F5F04083
:1032400020380A28F4D8DFE800F0060A0E13171C0D
:103250002025292E320001F096F80020E9E723B15D
:1032600001F018F9F9E7002BFAD001F0FFF8F4E7C4
:1032700023B101F059F9F0E7002BFAD001F042F93F
:10328000EBE723B101F078F9E7E7002BFAD001F082
:103290005FF9E2E723B101F097F9DEE7002BFAD0FE
:1032A00001F07EF9D9E723B101F0BAF9D5E7002B97
:1032B000FAD001F0A7F9D0E74B7910B504460BB965
:1032C000012010BDFEF704FE00F02203A4F5F0403B
:1032D00040380C28F4D8DFE800F0070B0E11151A5F
:1032E0001E23272C3035390001F062F80020E8E772
:1032F00001F076F8FAE701F046F8F7E723B101F0BC
:10330000C9F8F3E7002BFAD001F0B0F8EEE723B1EB
:1033100001F00AF9EAE7002BFAD001F0F3F8E5E74B
:1033200023B101F029F9E1E7002BFAD001F010F9FF
:10333000DCE723B101F048F9D8E7002BFAD001F01F
:103340002FF9D3E723B101F06BF9CFE7002BFAD0C7
:1033500001F058F9CAE7000030B510F47F4F85B08E
:103360000190C0F30725C0F307420DD109B12F4BDF
:103370009A5C11461346002061F3070063F30F20A7
:1033800062F3174005B030BD9DF80440002937D0E6
:10339000264B995C0620FF2360435A1BB0FBF3F0D9
:1033A0006FF05403434303EB440303EB4303DBB2EB
:1033B00003FB05F4C3F1FF036B4324121B12C4F19A
:1033C000FF04C3F1FF034A434C434B43C2F30722BC
:1033D000C4F30724C3F30723C9B2062823D801A5E1
:1033E00055F820F077330008053400080B34000846
:1033F000153400081F34000827340008773300080C
:103400001146C7E70B462146B5E7084611461A465E
:103410000346B0E70846234611460246ABE7084696
:1034200019461346F9E713462246A4E71C9A0008FA
:10343000012184B004B0FFF78FBF012830B501D857
:10344000C0B230BDB0F5F75F88BFFF224FF0010476
:103450009EBF42090832D2B2A3185910C3F34705E0
:10346000C3F34F035B439BB2984206D2013DEAB2DD
:103470009442F1D9013CE0B2E3E7FF2902D00135E3
:10348000ECB2F5E70846DCE741064CBFC343024611
:1034900010B548BFDAB20D4CC2F3011204EB420181
:1034A00048BF03F00F03497854BF00F00F03013306
:1034B000594314F81230020603EB2113DBB244BF68
:1034C0005B42DBB283F0800010BD00BF009A0008B1
:1034D0001FB5C0F3074401905008FFF7D5FFA0F1D6
:1034E00080035BB2002BBCBFC0F1800043B2002060
:1034F0005B00DBB263431B128DF80630019BDAB22E
:1035000062F30700C3F3072262F30F20C3F30743FC
:1035100063F3174004B010BD84B0134B0190283101
:1035200013F81130E4214B43C2EB13231C33002B5F
:10353000C0F30720B8BF5B42A0EBC3031BB223EA72
:10354000E373434300201B128DF80530019BDAB270
:1035500062F30700C3F3072262F30F20C3F30743AC
:1035600063F3174004B07047000C002084B0134B85
:103570000190283113F81130E4214B43C2EB13239F
:103580001C33002BC0F30740B8BF5B42A0EBC30362
:103590001BB223EAE373434300201B128DF806306D
:1035A000019BDAB262F30700C3F3072262F30F2034
:1035B000C3F3074363F3174004B07047000C0020C7
:1035C00084B0019000208DF80420019BDAB262F3F0
:1035D0000700C3F3072262F30F20C3F3074363F32B
:1035E000174004B07047000084B0019000200A4BDF
:1035F000283113F811309B1A8DF80430019BDAB290
:1036000062F30700C3F3072262F30F20C3F30743FB
:1036100063F3174004B07047000C002084B00190A1
:1036200000200B4B03EB410393F851309B1A8DF8AC
:103630000430019BDAB262F30700C3F3072262F39E
:103640000F20C3F3074363F3174004B0704700BF74
:10365000000C0020C94384B00190C9B2C0F30740F8
:103660004143002009128DF80610019BDAB262F383
:103670000700C3F3072262F30F20C3F3074363F38A
:10368000174004B07047C94384B0C1F3850101906D
:10369000014400208DF80410019BDAB262F30700A8
:1036A000C3F3072262F30F20C3F3074363F317400A
:1036B00004B0704784B003EB8302BDF81030019072
:1036C00013449BB2FF2B28BFFF23DB43C0F307400B
:1036D000DBB20344FF2B28BFFF2300208DF8063008
:1036E000019BDAB262F30700C3F3072262F30F20F3
:1036F000C3F3074363F3174004B07047024B1A78D3
:1037000010431870704700BF30230020012310B50C
:10371000044C0822172104482370FFF7AFFA002356
:10372000237010BD30230020E0290020082208B5B6
:1037300017210348FFF75AFA0022024B1A7008BDFE
:10374000E02900203023002084B004B0FFF770BED1
:103750002DE9F74F314D074605EB00135A5C8846BB
:10376000FF2A4FEA001626D00024DFF8B4B05E44EA
:103770000E444FF0000905EB04130BEB041A13F889
:1037800001CBBCF1FF0F0CD0E1B28F4216D15FFA32
:1037900089F1884512D131782031FF2928BFFF21D6
:1037A000317009F10109B9F1100F0AF1010AE6D1EE
:1037B0000134052CDDD103B0BDE8F08F02F1280003
:1037C0000CF1280C15F81CE015F8101005EB4C0C4A
:1037D000A1EB0E0189B2494305EB40009CF801C002
:1037E00040780193A0EB0C0000FB001080B2009227
:1037F000FFF723FEDDE900232828D2D8C0F12801F5
:1038000089B2102928BF10219AF80000C9B20144DA
:10381000FF2928BFFF218AF80010C2E7000C002012
:1038200061230020FFF782BF10B5084C25232046F6
:10383000032200F8013B0649FDF74EF94FF67F736E
:10384000A380BDE81040FFF771BF00BFE029002052
:103850009C9400080020704770B506460D4614463B
:10386000FFF7F8FF044B03EB06135B5DFF2B1EBF56
:1038700023540130C0B270BD000C0020014BDB6846
:10388000184700BF089A0008704700002DE9F04172
:103890000C4615461E46054B5F68FFF7F5FF33469D
:1038A0002A462146BC46BDE8F0416047089A000818
:1038B000014B9B68184700BF089A00082DE9F04F9C
:1038C00085B00F4615460190FEF72CFD8046002876
:1038D00050D0002D51D03946019802AAFFF7BCFF05
:1038E0000446354E33782344082B22DDC4F1080A00
:1038F000611C52463144701CFDF7EEF804F10901D9
:103900005246314406F10900FDF7E6F806EB4401A2
:103910004FEA4A02193106F11900FDF7DDF804F10A
:1039200011015246314406F11100FDF7D5F886F831
:1039300000A002AB009300231946994696F800B008
:10394000DFF874C0DFF874E0D8B200EB0B0A8442F1
:103950005FFA8AF613D811B1174B5C441C704DB155
:10396000174B1B7803F0FC032C2B03D1394601982D
:10397000FFF7EEFE05B0BDE8F08F2C46B1E7009AE8
:103980000CEB060012F801AB01330AF1280100929A
:103990001EF811200EEB410149784270417206F188
:1039A0000C010CEB410181F8019081F8029080F844
:1039B00011A04146C8E700BF31230020000C0020C1
:1039C000E02900200120704708B5FFF7FBFF08BD84
:1039D000C0EBC00043000020DBB203F10E02D2B204
:1039E000432A63F30700134628BF432382B063F3DF
:1039F0000F2002B0704700002DE9FF47064600780F
:103A0000FFF7E6FF88461F4F1F4A3B7915889B0842
:103A100003FB0555DFF874A0C0F30729C5F307259C
:103A2000C4B2E1B2894507D8B9F1420F8CBF00207A
:103A3000012004B0BDE8F0871AF8042073781A4218
:103A40001DD0BA787B78F87843EA022343EA004035
:103A50002A46C047C0F307238DF80C00C0F3074087
:103A60008DF80D308DF80E000398FFF76DFEC0F352
:103A70000743C0F30722C1B22046FFF707FF013416
:103A8000CFE700BFE0290020E8290020D60C002065
:103A90000149FFF7B1BF00BFD13400080149FFF76A
:103AA000ABBF00BF193500080149FFF7A5BF00BF34
:103AB0006D3500080149FFF79FBF00BFC135000801
:103AC0000149FFF799BF00BFE93500080149FFF739
:103AD00093BF00BF1D3600082DE9F04F324D074659
:103AE00085B00078FFF774FF2B794FF6FF7601332E
:103AF000FF2B28BFFF238846B6FBF3F6DFF8ACB0F8
:103B0000DFF8ACA0C0F30729C4B2E1B2894507D8F9
:103B1000B9F1420F8CBF0020012005B0BDE8F08F45
:103B20001BF804207B781A422CD09AF800302148E8
:103B3000013B5BB21A0627D5324629796B780131F1
:103B4000FF2928BFFF215143AA78E87843EA0223DE
:103B5000C1F30F2143EA0040C047C0F307238DF8AB
:103B60000C00C0F307408DF80D308DF80E0003985F
:103B7000FFF7EAFDC0F30743C0F30722C1B22046B6
:103B8000FFF784FE0134C0E7C25C8A420AD103F128
:103B90000C020AEB420292F801C092784CEA02222F
:103BA000B242CAD3013BC5E7E0290020D60C002071
:103BB000EC290020FD2900200149FFF78DBF00BF3F
:103BC000553600080149FFF787BF00BF8736000858
:103BD0002DE9F04F82468DB008780492FFF7F8FE89
:103BE0008B46404BC4B21B78C0F3072903933E4B6E
:103BF00003EB4406D6330593E3B2994507D8B9F1F0
:103C0000420F8CBF002001200DB0BDE8F08F059B56
:103C10001A5D9BF801301A421ED057460025032238
:103C200032490AA8FCF758FF2E4B0AEB0308039A07
:103C3000FBB29A4213D82E4BDB786B431B128DF8E4
:103C40002A300A98FFF780FDC0F30743C0F307222C
:103C5000C1B22046FFF71AFE01340236CCE718F84D
:103C6000013F96F8501096F85120C91A98F808307C
:103C700089B2D21A92B202FB02F001FB010080B2BB
:103C800007920691FFF7D9FB194B07F10C0E93F839
:103C900004C0144B0CF1010CBCF1FF0F28BF4FF016
:103CA000FF0C03EB4E0E9EF801309EF802E0079ADF
:103CB00043EA0E2303FB0CFC0699CCF30F238DF88B
:103CC0002A500093049D034612B20A9809B2A847ED
:103CD000C0F307238DF828008DF82930C0F307457D
:103CE0000137A4E7EC290020000C0020E129002086
:103CF000E0290020044B01461B78044A013B23EADB
:103D0000E373D8B2FFF764BFEC290020B536000892
:103D1000F7B506460078FFF75BFE184AC5B2537840
:103D20009178C0F30724D07843EA012343EA0040A6
:103D3000FFF70AFDC0F307238DF80530104FC0F3DD
:103D400007438DF804008DF80630EBB29C4205D88D
:103D5000422C8CBF0020012003B0F0BD7A5D737847
:103D60001A4208D028469DF806309DF805209DF897
:103D70000410FFF78BFD0135E7E700BFE0290020C5
:103D8000D60C00202DE9FF4106460078FFF720FE03
:103D9000DFF89C80032208F10101C4B2C0F30725BB
:103DA00001A8FCF799FE019898F80170FFF7CCFC88
:103DB000C0F307238DF8093098F804308DF8080017
:103DC0001F448DF80470C0F307408DF80A00019875
:103DD000FFF7BAFCC0F307238DF80D30154FC0F381
:103DE00007438DF80C008DF80E30E3B29D4206D8E3
:103DF000422D8CBF0020012004B0BDE8F0813B5D66
:103E00007278134211D0DB07204643BF9DF80E3075
:103E10009DF80D209DF80C109DF80A305CBF9DF8B0
:103E200009209DF80810FFF731FD0134DDE700BFE0
:103E3000E0290020D60C00202DE9FF470646007837
:103E4000FFF7C6FDDFF86C800322C4B2C0F307257C
:103E500008F1010102A8FCF73FFEDFF85C9098F83A
:103E60000470A9F1850ABF08E3B29D4206D8422D2D
:103E70008CBF0020012004B0BDE8F08719F80420B1
:103E800073781A4213D01AF8142098F801301209E6
:103E900002FB07338DF808300298FFF755FCC0F39A
:103EA0000743C0F30722C1B22046FFF7EFFC0134FD
:103EB000DAE700BFE0290020D60C00202DE9FF47FB
:103EC00006460078FFF784FDDFF86C800322C4B259
:103ED000C0F3072508F1010102A8FCF7FDFDDFF89A
:103EE0005C9098F80470A9F1860ABF08E3B29D427D
:103EF00006D8422D8CBF0020012004B0BDE8F08719
:103F000019F8042073781A4213D01AF8142098F87C
:103F100001307A4303EB52138DF808300298FFF713
:103F200013FCC0F30743C0F30722C1B22046FFF7DA
:103F3000ADFC0134DAE700BFE0290020D60C0020F8
:103F40002DE9F04F074687B00078FFF741FDC3B277
:103F50000193BB78C0F307244BB1002211461046F1
:103F6000FFF7A6FC502200213B48FCF737FD3B78C9
:103F700083B30026B0464FF0100B384B06EB030A14
:103F8000354B06EB03091AF8013B019A93420CD317
:103F9000A3420AD2314A134493F8D6207B781A42BE
:103FA00027D108F101085FFA88F80BF1FF3313F00D
:103FB000FF0B09F10109E6D1402E04D0B8F10D0F35
:103FC00006F11006D7D9422C8CBF0020012007B083
:103FD000BDE8F08F224D288802F062F918288CBFC6
:103FE000012200221F4B1A70C3D902F0E1F9288088
:103FF000BFE799F800501C4AA5F1550323EAE37383
:10400000C3F1AA038DF810309378D2788DF811306F
:1040100005F1AA03FF2B28BFFF2303EB4303023361
:10402000DBB253431B128DF812300498FFF78CFB60
:10403000C0F30743C0F30722C1B21AF8010CFFF71F
:1040400025FC084B1B78002BABD0013D25EAE5751C
:1040500089F80050A5E700BF61230020000C002074
:10406000B2230020B1230020E029002038B5444BC2
:1040700005461B78434A83421FD143491378097888
:1040800003F003035B1A18BF0123404CA37053795C
:1040900062789A4205D00022114610466370FFF7FD
:1040A00007FC0E2D61D8DFE805F00A1D2C303438EE
:1040B0003C4044484C5054585C000123E5E7A37849
:1040C000002B59D0002211461046FFF7F1FB0222C7
:1040D0002378013323702E4B1A70A37883B90322FF
:1040E0002B4B47E02948FFF713FE23780133237059
:1040F00030B90222264B1A70A3780BB9002DEED0EE
:1041000038BD2248FFF73EFEEFE72048FFF794FE58
:10411000EBE71E48FFF7D2FEE7E71C48FFF7B8FCC5
:10412000E3E71A48FFF7BAFCDFE71848FFF7BCFCE3
:10413000DBE71648FFF7BEFCD7E71448FFF7C0FCE3
:10414000D3E71248FFF7C2FCCFE71048FFF7F8FEAD
:10415000CBE70E48FFF730FDC7E70C48FFF732FD0D
:10416000C3E70A48FFF7C6FDBFE702222378013301
:104170002370074B1A70C3E7237801332370AEE72F
:104180002C0D0020E02900202D0D0020290D0020FD
:10419000280D002007B500780138C0B2FFF718FCE1
:1041A000C0F30721C0B2FCF733FD03B05DF804FB98
:1041B0002DE9F0413C4C3D4E206802F078F8054670
:1041C00002F0C0F82060002496F800E0A446714692
:1041D000C5F57F47FF37E3B29E4514D8BCF1000F09
:1041E00000D03170324B1B782BBB324B1B7813F055
:1041F000030500D09D08304C2378032B29D8DFE835
:1042000003F01C2A394504F10C0206EB42025378F4
:1042100092F80280013443EA08239F4229BF5B19C8
:1042200001F1FF315370C3F307233ABF4FF0010C84
:10423000C9B29370CFE70025DDE700221F4B1B4971
:104240001A701F4B292218601E48FCF745FC0123F9
:104250002370BDE8F0812846FFF708FF002DF8D055
:104260002378022B01D1FFF7AFFBBDE8F0411348E3
:10427000FFF790BF144B154A1D700E4B1B78C3F30C
:1042800001031370FFF7FAFA0323E1E7104B1B78E1
:104290000BB1FFF74BFA0A4B186802F008F80F2829
:1042A000D7D90023D4E700BF5C23002031230020AE
:1042B00060230020E0290020280D0020290D002087
:1042C000E8290020EC2900202C0D00202D0D0020D5
:1042D0003023002010B500240D4B1B6898470D4873
:1042E0001022FF2100F8194BFCF778FB0A48102236
:1042F000FF2100F8194BFCF771FBFFF707FA074B9A
:104300001B78032B03D8BDE81040FFF78DBA10BD12
:10431000089A0008EC29002031230020E029002021
:1043200070B504460A4E88B135787DB92846FFF746
:104330009DFE084B084A1D70084B1B78C3F3010310
:104340001370FFF79BFA0322054B1A70347070BD8F
:10435000602300202C0D00202D0D0020E0290020DE
:10436000280D0020044A137883F001031370002203
:10437000024B1A70FFF7C2B9E0290020280D002077
:104380000020FFF7EFBF0120FFF7ECBF064A1378CC
:1043900013F0030304BF05490B700121137861F387
:1043A00001031370704700BFE0290020280D002092
:1043B00008B5FFF7EBFFBDE808400120FFF79EB905
:1043C000054B1A7892071EBF0021044A11701A7813
:1043D0006FF301021A707047E0290020280D0020B9
:1043E00008B5FFF7EDFFBDE808400120FFF786B9EB
:1043F000024B187800F00300704700BFE02900204E
:104400000C4A034608461178890711D063B10E2B78
:104410000CD803F03F03117863F387011170002279
:10442000054B1A70FFF76AB90123F4E70E23F2E790
:10443000704700BFE0290020280D00200021FFF771
:10444000DFBF0000014B187880087047E02900208A
:10445000054B01461B789B0801330F2B34BF1846D0
:104460000120FFF7CDBF00BFE02900200120FFF7AA
:10447000EFBF0000064B01461B78C3F38503013BE9
:1044800013F0FF0314BF18460E20FFF7B9BF00BF9B
:10449000E02900200120FFF7EDBF000030B4084CF8
:1044A0000546184623789B0708D0A02A28BFA022DB
:1044B0006570A170E27030BCFFF720B930BC704766
:1044C000E02900200023FFF7E9BF0000014B5878E6
:1044D000704700BFE0290020014B9878704700BF6B
:1044E000E0290020014BD878704700BFE029002068
:1044F000034903464878CA782A308978FFF7CEBF47
:10450000E02900200120FFF7F3BF0000054910B4A7
:104510004C7803462A3CCA78A0B2897810BCFFF7D1
:10452000BDBF00BFE02900200120FFF7EFBF000062
:1045300010B4064C0346A178E2784031FF2928BF29
:10454000FF216078C9B210BCFFF7A8BFE0290020A6
:104550000120FFF7EDBF000010B4064C0346A17820
:10456000E278403921EAE1716078C9B210BCFFF706
:1045700095BF00BFE02900200120FFF7EDBF00003C
:1045800010B4064C0346E278A1782832FF2A28BFEF
:10459000FF226078D2B210BCFFF780BFE029002074
:1045A0000120FFF7EDBF000010B4064C0346E2788F
:1045B000A178283A22EAE2726078D2B210BCFFF702
:1045C0006DBF00BFE02900200120FFF7EDBF000014
:1045D000024B18710020FFF791B800BFE0290020BE
:1045E000014B1879704700BFE0290020044A137975
:1045F0004033FF2B28BFFF231371FFF77FB800BFA5
:10460000E02900200120FFF7F1BF0000034A1379E1
:10461000403B23EAE3731371FFF770B8E0290020F1
:104620000120FFF7F3BF0000014B5879704700BF2E
:10463000E0290020024B58710120FFF75FB800BF4E
:10464000E02900201FB5084B8DF80F20185C64236B
:10465000400000930DF10F02012300F0FE0001F075
:1046600021FF05B05DF804FB1A9A000838B504462E
:104670000D46C522FE21FFF7E5FF2A462046BDE88C
:104680003840FD21FFF7DEBFDA23F7B500246427A9
:104690000A4D03FB00550A4B1E5C7600F6B221461C
:1046A00010342A46102330460097E4B201F0FAFE97
:1046B000C02C05F11005F2D103B0F0BDB4230020E9
:1046C0001A9A000838B5002104460025FFF7CEFFEE
:1046D000E9B2002220460135FFF7B4FF182DF7D1CB
:1046E00001212046FFF7C2FF0025E9B20022204643
:1046F0000135FFF7A7FFC02DF7D120460321FFF7B3
:10470000B5FF104B204600220F211D5DFFF79AFFD9
:10471000204600221021FFF795FF2046FF220121AD
:10472000FFF790FFAA0142F001022046002102F0AB
:10473000C102FFF787FFBDE838404FF47A7003F0FD
:104740005EB800BF189A00084228F0B523D8124D71
:1047500005EB800494F801C0A778E678DA2415F810
:1047600020500E4805F0030504FB050414F80CE086
:104770008E4506D114F807E0964502D1A45D9C420F
:1047800009D0DA2404FB050000F80C10C25583554B
:10479000012380F8C030F0BDA1950008B4230020AB
:1047A000F8B505460E461746002420463B463246DD
:1047B00029460134FFF7C8FF432CF6D1F8BD0000AD
:1047C0002DE9F0474FF0DA09DFF8B48008EB8004F8
:1047D00094F801C094F802E0E67818F820402948DF
:1047E00004F0030409FB04090CF0070A09EBDC09D7
:1047F0004FEADC084FF0010C4FEADE07F50899F8A4
:10480000C1900EF0070E06F007060CFA0AFC71B311
:1048100049EA0C0C5FFA8CF9DA214FF0010C01FB2C
:104820000401884488F8C190394491F8C1100CFA09
:104830000EFCFAB141EA0C02D2B2DA2101FB04010A
:104840000F4487F8C120294491F8C1200121B140CB
:104850009BB142EA0103DBB2DA2202FB0400054409
:1048600085F8C130012380F8D930BDE8F08729EA06
:104870000C09D1E721EA0C02DFE722EA0103EBE7AA
:10488000A1950008B423002038B5DA23084C05466A
:1048900003FB004494F8C03043B10121FFF7E6FE6A
:1048A0002846FFF7F1FE002384F8C03038BD00BF72
:1048B000B4230020F8B5DA2444430E4E07463319DA
:1048C00093F8D930ABB10021FFF7D0FE0025C034FA
:1048D000344429460135384614F8012FEDB2FFF76C
:1048E000B1FE182DF5D1DA2303FB0766002386F805
:1048F000D930F8BDB423002010B501F0ABFD002085
:10490000FFF7E0FE0120FFF7DDFE00240123E0B207
:104910001A4619460134FFF753FF432CF6D1002005
:10492000FFF7C8FFBDE810400120FFF7C3BF08B57F
:104930000020FFF7A9FFBDE808400120FFF7A4BF52
:104940002DE9F0414FF0120C461805461946104665
:104950000027B54201D3BDE8F08115F8013B83EA99
:104960000002A2FB0C830CFB01334801540114EB41
:10497000080440EAD26043EB00034FEAC218A418CF
:104980004FEAC11041EB03034FEA022E40EA5260A6
:1049900014EB08044FEA012143EB000341EA1261E2
:1049A00014EB0E0443EB01030EEB03013819D0E7BF
:1049B000FDF7B8BC08B5082200210348FCF70EF843
:1049C000BDE8084000F008B9692500208378C07868
:1049D000013303F003031B1A58425841704710B5C6
:1049E0000446FFF7F3FF78B9A37801F07F01E018E0
:1049F00041EAC21202710120013303F00303A370E4
:104A000023780133237010BD0020FCE710B5C37874
:104A100084789C4211D003441B79C3F3C014C3F3C0
:104A200006030B701470C378013303F00303C370E3
:104A3000437801334370012010BD0020FCE70000E3
:104A40000A4601460148FFF7CABF00BF692500209A
:104A50000A4601460148FFF7D9BF00BF692500207B
:104A6000F0B5304B87B01A7832B100221A702E4B55
:104A70009A78DA701A785A7000F0EEF8FFF798FF1B
:104A80000446A0B3002404AE28E09DF806409DF83B
:104A900007308DF810406BB3FD278DF8117001F0D1
:104AA00087FC4FF48173ADF81200ADF8143096E82E
:104AB0000300FCF7F9FA8DF808408DF8097001F051
:104AC00077FC02238DF80C300023ADF80A008DF836
:104AD0000D30DDE90201FCF7E7FA2C460DF1070184
:104AE0000DF10600FFF7B4FF05460028CDD12046A2
:104AF00007B0F0BDFC278DF8117001F059FC40F2B1
:104B00000313ADF81200ADF8143096E80300FCF77B
:104B1000CBFA8DF808408DF8097001F049FC0323A9
:104B2000D0E700BF68250020692500204FF4E15040
:104B300002F0DEBC0123C1F1804101F20E4101F01F
:104B40000F012022024803FA01F103F0D4BD00BF97
:104B500000040040054BC1F18041186901F20E418B
:104B600001F00F01C84000F0010070470004004050
:104B7000704700002DE9F0410025154F3B78ECB25D
:104B8000A3420CD8FFF7D2FF0026DFF848803B781D
:104B9000F5B2AB420DD8FFF7EBFFBDE8F081002185
:104BA0002046FFF7C7FF01212046FFF7C3FF01356D
:104BB000E4E700212846FFF7CDFF012104462846FF
:104BC000FFF7C8FF44EA400408F805400136DEE775
:104BD00071250020732500200122024B1A70FFF777
:104BE000C9BF00BF7125002038B541EA4203174A0A
:104BF0000446115CDBB201F00300834224D043EA97
:104C00008103134D1349DBB2135503F00F028A5C85
:104C1000295D0A4451B2033202F0FF02062A2955E7
:104C200003D803F00303032B0ED1002903DD002179
:104C30002046FFF705FF2B57002B03DA0121204602
:104C4000FFF7FEFE00232B5538BD00BF7325002063
:104C5000722500201C9B0008F8B500250A4F3B7800
:104C6000ECB2A34200D8F8BD00212046FFF772FF46
:104C7000012106462046FFF76DFF314602462046D9
:104C8000FFF7B2FF0135EAE771250020FDF762BAB0
:104C900008B50020FDF71EFE00F0010008BD08B5B4
:104CA000FDF7D4FE40F6B83002F0A9FDFDF7CEFEC8
:104CB000FFF7EEFF28B1FFF7E9FFBDE8084001F07C
:104CC0008FBB08BD08B5FFF7EAFF08BD10B5044665
:104CD0000068FDF73DFF23680133236010BD042009
:104CE0007047A023520002EB411203FB0020283042
:104CF0007047032838B510D804290ED80F2A0CD8CD
:104D0000FFF7EFFF0546FDF723FF0402681CFDF7E0
:104D10001FFFA4B2204380B238BD0020FCE7032867
:104D200070B51C460FD804290DD80F2A0BD8FFF7F1
:104D3000D8FF0546210AFDF773FFE1B2681CBDE804
:104D40007040FDF76DBF70BD032838B518D8B9B9EC
:104D5000800000F52A755AB12846FDF7F9FE0402D5
:104D60000120A4B22844FDF7F3FE204380B238BDF1
:104D700000F2AA20FDF7ECFE0402A4B20320F1E742
:104D80000020F4E7032838B51C4615D8A1B98000E7
:104D900000F52A75190A4AB12846FDF741FF01209E
:104DA000E1B22844BDE83840FDF73ABF00F2AA203E
:104DB000FDF736FF0320F3E738BD2DE9F843002562
:104DC0000026ECB212E05FFA87F94A4641462046D7
:104DD000FBF7ECFF013703464A4641462046FFF702
:104DE0009EFF102FEFD10136052E03D000275FFA6A
:104DF00086F8E8E7012200212046FBF7EBFF0122BD
:104E0000034600212046FFF7BDFF00222046114641
:104E1000FBF7E0FF00220346114620460135FFF76D
:104E2000B1FF042DCCD1BDE8F88370B5144600F174
:104E300028055618B44200D170BDA5F12803B3F57A
:104E4000207F06DA2846FDF783FE04F8010B0135C2
:104E5000F0E70020F9E770B5144600F12805561870
:104E6000B44200D170BDA5F12803B3F5207F03DA69
:104E700028462178FDF7D4FE01340135F0E70328F8
:104E800010B406D8042904D80F2A02D810BCFFF7A2
:104E900030BF002010BC7047032802D809B9FFF7C3
:104EA00053BF002070471020704740F648507047AD
:104EB000F8B51446054640F647575618B44200D197
:104EC000F8BDBD4207DC05F52E70FDF741FE04F884
:104ED000010B0135F2E70020F9E7F8B51446054665
:104EE00040F647575618B44200D1F8BDBD4204DC25
:104EF000217805F52E70FDF793FE01340135F2E7B8
:104F000010B54FF42E74204600210134FDF788FEC1
:104F1000B4F5805FF7D110BD0F2837B504460DD822
:104F200040F6FF70FDF714FE40B94FF42E753CB902
:104F30002246094801A9019500F076FC03B030BD76
:104F4000B5F5805FFAD02846FDF702FE013500284E
:104F5000F6D1013CE4B2EAE7CD4C000847F616432F
:104F6000984210B50C461BD1FCF7B2FF62790D4B8D
:104F700072B100F0AA00002813BF012200222920EC
:104F800035201A7001F06CF8FDF766F8002010BDAE
:104F90001B78002B0CBF2920352001F07FF8F3E7A8
:104FA0000120F4E77425002038B50546487900282B
:104FB00000F0DC80A5F5E045ABB2222B00F2BB800F
:104FC000FDF7EBF86A4C013D2080212D12D8DFE877
:104FD00005F04DBD551B1F59235D692FB5336D3746
:104FE00071973B759F417B8327612B65477F8EA916
:104FF000B31651C5237843F00103237095E063781D
:1050000043F00803637090E0237843F00203F4E771
:10501000237843F00403F0E7237843F00803ECE738
:10502000637843F00103EDE7637843F00203E9E7B7
:10503000237843F01003E0E7237843F02003DCE714
:10504000237843F04003D8E7FCF78EFB237843F046
:105050008003D2E7237823F00C0343F00C03CCE762
:10506000637823F0030343F00303CBE723786FF364
:105070000003C2E763786FF3C303C3E723786FF3DA
:105080004103BAE723786FF38203B6E723786FF31F
:10509000C303B2E763786FF30003B3E763786FF39A
:1050A0004103AFE723786FF30413A6E723786FF388
:1050B0004513A2E723786FF386139EE7FCF754FBB2
:1050C00023786FF3C71398E7237823F00C0394E752
:1050D000637823F0030395E72378C3F3800282F01B
:1050E0000102D2B262F3820362F3C30385E76378FD
:1050F000DA4302F0010262F3000362F3410381E745
:105100002378C3F3801282F0010262F3861374E7FE
:10511000FCF72AFB2378C3F3C01282F0010262F38A
:10512000C7136AE70120FDF79BF82088FDF738F8E0
:10513000FCF71AFB002038BD0020F4E72378C3F306
:10514000001282F0010262F3041356E72378C3F3DE
:10515000000282F0010262F300034EE76378C3F3BA
:10516000C00282F0010262F3C3034BE70120E2E7D1
:10517000C629002000EB4003C3EB031300EB8300C0
:1051800083B200B2002807DA803800B2002800DAC3
:10519000FF3040F30720704703F18000F9E700007B
:1051A000164B1B78D90707D5154B187840007F2878
:1051B0001FD800B3C0B270479A0703D5104B1878B8
:1051C0008000F4E75B0703D50D4B1878C000EEE7CD
:1051D0000C4B1B785BB10C4A094912780878934252
:1051E000F4D25843C000B0FBF2F080B2DFE70820F1
:1051F000E0E77F2070470120704700BF7C2500203A
:10520000330D00207B250020320D0020144B1B782D
:10521000D90705D5134B18788008F0B1C0B2704794
:105220009A0703D50F4B18784008F6E75B0705D5BA
:105230000C4B18787F28F0D97F2070470A4B1B78D9
:105240004BB10A4A07491278087893423CBF584349
:10525000B0FBF2F0EEE70120E0E70120704700BF6D
:105260007C2500202F0D00207A2500202E0D002007
:1052700008B5A0F1CD03122B10D8DFE803F00A1017
:1052800013192E2E2E2E2E2E2E2E1C21252B363C83
:105290004100FFF785FF40421C4BD87008BDFFF767
:1052A0007FFFF9E7FFF77CFF4042184B9870F5E766
:1052B000FFF776FFF9E7FFF7A9FF144B1871EDE749
:1052C000FFF7A4FF4042F8E7FFF7A0FF40420F4B73
:1052D0005871E3E7FFF79AFFF9E701230B4AD1384A
:1052E000517883400B435370D8E7094A137843F051
:1052F00001031370D2E7064A137843F00203F8E77C
:10530000034A137843F00403F3E700BF7D25002030
:105310007C25002030B5414BCD2893F9041093F93A
:10532000052093F9024093F9035012D1002D01DAC0
:105330000022DA70D9789A780A4351B20AB9384A09
:1053400011701A795B7913435AB20BB9354B1A7045
:1053500030BDCE2802D1002DEADCEBE7CF2804D106
:10536000002CE7DA00229A70E4E7D02802D1002C62
:10537000F8DCDFE7D92804D10029DBDD00221A712F
:10538000D8E7DA2802D10029D4DAF7E7DB2804D1FC
:10539000002ACFDA00225A71CCE7DC2802D1002A99
:1053A000F8DCC7E7D1380E28C4D801A252F820F0A3
:1053B000ED530008ED530008ED530008ED530008CD
:1053C000ED530008ED530008ED530008ED530008BD
:1053D000355300083553000835530008355300088D
:1053E000FB530008075400081154000801215A78A3
:1053F000814022EA01025A709CE70B490A7822F0A8
:1054000001020A7096E708490A7822F00202F8E7DA
:1054100005490A7822F00402F3E700BF7D25002049
:105420007B2500207A2500207C25002008B500F08F
:10543000BFFF094B9A78D9780A431CBF074A1080EE
:105440001A795B791A431CBF054B18800248BDE8E6
:10545000084000F02FBD00BF7D25002078250020EA
:1054600076250020062208B500210548FBF7B6FA8C
:105470000023044A1370044A1370044A137008BDD1
:105480007D2500207B2500207A2500207C2500201A
:1054900090F902305BB990F9033043B990F90430C8
:1054A0002BB990F90500003818BF01207047012082
:1054B0007047000037B5584C062221466846FBF776
:1054C0000BFB00239DF80320A370E370237163712D
:1054D0009DF8023013430AD0504B188800F0E0FECC
:1054E0004F490B783BB34F4A127890422CDC9DF821
:1054F00004309DF8052013430BD04B4B188800F067
:10550000CFFE4A490B78002B4DD0494A1278904281
:1055100052DC6946404800F0FDFD18B93E48FFF7EF
:10552000B7FF08B1FFF782FF062269463A48FBF74A
:10553000D3FA03B030BD0A253E4A12786A4390423E
:10554000D5DD01330B7001E0FF2BFAD19DF902503C
:105550003DB1FFF725FE002DD4BFFF2301235843A3
:10556000A0709DF903503DB1FFF71AFE002DD4BF86
:10557000FF2301235843E07094F902000028B6D0BD
:1055800094F90320002AB2D0FFF7F4FD002808BFE9
:105590000120A0701046FFF7EDFD08B1E070A6E70E
:1055A0000123E370A3E70A25234A12786A43904255
:1055B000AFDD01330B7001E0FF2BFAD19DF90450F0
:1055C0003DB1FFF723FE002DD4BFFF230123584335
:1055D00020719DF905503DB1FFF718FE002DD4BF95
:1055E000FF2301235843607194F90400002890D0F0
:1055F00094F90520002A8CD0FFF7BCFD002808BFD5
:10560000012020711046FFF7B5FD08B1607180E7F9
:10561000012363717DE700BF7D25002078250020F0
:105620007B250020340D0020762500207A250020DF
:10563000300D0020350D0020310D0020754B2DE977
:10564000F74F754A13F80090C308D75C734A00F00F
:10565000070012F80380724A0741D55C48FA00F847
:10566000054117F001070C4608F0010805F0010597
:1056700000F08780E120FBF749FD002C55D040F277
:10568000E73A684E4FF47A72A4FB066B16EB0A03F6
:1056900001934BF1000100230198FBF725F802F07C
:1056A000AEF8B8F1000F79D0E620FBF72FFD5D4E84
:1056B0004FF47A72A4FB066A06F2E73600233046FE
:1056C0005146FBF711F802F09AF821464846FBF7DD
:1056D000FBFD30464FF47A7200235146FBF704F885
:1056E000064602F08CF8B8F1000F00F08C80E6203E
:1056F000FBF78AFD304602F082F8002F60D1002DC2
:1057000000F084802C20FBF7FDFD464B4FF47A72AD
:10571000A4FB03030021002300F2E730FAF7E4FFC3
:1057200003B0BDE8F04F02F06AB8012002F067F85C
:10573000B8F1000F1AD0E620FBF7E8FC012002F0D8
:105740005EF821464846FBF7BFFD012002F057F8FE
:10575000E620FBF759FD012002F051F86FB9002D4A
:1057600054D02C20FBF7CEFD0120D9E74846414616
:10577000FBF7AAFD012002F042F8E120FBF744FD0F
:1057800029E0B8F1000F22D0E620FBF7BFFC002C87
:105790008DD1012002F033F83946D3E7214648463F
:1057A000FBF792FD16EB0A064FF47A724FF00003F6
:1057B00001984BF10001FAF797FF064602F01FF837
:1057C000E120FBF721FD304602F019F897E7484643
:1057D000FBF77AFD1CB9012002F011F8BFE7114870
:1057E0004FF47A72A4FB00030021002300F2E7309B
:1057F000FAF77AFF02F003F845B12C20FBF782FD9F
:10580000002C82D1B0E7002FF6D0D9E703B0BDE875
:10581000F08F00BF2C9B0008CC9B0008BC9B0008AD
:10582000AC9B0008A08601002DE9F84F06463448DD
:105830000F46A2FB0003154600234FF47A720021A5
:1058400000F2E730FAF750FF80463846B0470028AC
:1058500045D0012850D13846B0470128044606D12A
:105860003846B047FBF74EFD45B1404607E00228F9
:1058700008D13846B047FBF749FCF5E7012001F0B5
:10588000BEFFE2E7032804D13846B047FBF7BCFC73
:10589000EAE704281DD13846B0474FF00009044616
:1058A0004FF00A0BDFF85CA01AF8041011F00401A5
:1058B00017D1B9F1000F1BD040F2E730DFF840C03C
:1058C0004FF47A720023C9FB0C01FAF70DFF01F0C7
:1058D00096FF7DB1404601F092FF002CB5D1BDE8A6
:1058E000F88F3846B047303C0BFB09490446DBE7EC
:1058F0000120ECE70120EEE72946FFF79FFEA4E731
:10590000A0860100A1940008F8B5144642791D460E
:105910009DF818702C4B92B11C7000F049FD2B4B78
:10592000188004F12003DBB2072B41D8012004F0DA
:105930000704A040C0B2BDE8F840FBF7EBBC1E78FE
:10594000A64236D1214B188800F0AAFCC72830D8CF
:1059500005F12004AE42E4B225D006F12003DBB20B
:10596000072B06D8012006F00706B040C0B2FBF7AF
:10597000DAFC072C04D93846BDE8F840FBF7C2BC76
:10598000012005F007039840C0B2FBF7C3FC38467E
:10599000FBF7B8FC012005F00705A840C0B2BDE840
:1059A000F840FBF7C0BC3846FBF7ACFC072CF1D93C
:1059B000F8BD04F12003DBB2072BF9D8012004F075
:1059C0000704A040EAE700BF8625002084250020C8
:1059D0000346A3F5F843183B07B50846062B3BD80A
:1059E000DFE803F0171E0410252C33002623009354
:1059F000E12347F61A411A46FFF786FF002003B05D
:105A00005DF804FB27230093E52347F61B411A4664
:105A1000F2E72623E022009347F61841E123EBE763
:105A20002723E422009347F61941E523E4E72623E0
:105A3000E222009347F61C41E123DDE72723E6221B
:105A4000009347F61D41E523D6E72823E52200937E
:105A500047F61E410123CFE74B7913B10022024BD9
:105A60001A700120CBE700BF8625002038B547F625
:105A70007743984205D047F6784398421BD00120DF
:105A800038BD4B7993B100F01FF8FBF7EFFE00F043
:105A90001BF8044600F01EF8054600F021F82946E0
:105AA00002462046FBF7E4FF0020E9E700F00CF88F
:105AB000FBF7E6FEEBE74B7913B100F00BF8E4E7F8
:105AC00000F008F8F4E70000014B1878704700BFB9
:105AD000380D0020014B1878704700BF370D0020AB
